:020000040800F2
:10000000005000207D330008390600083B06000838
:100010003D0600083F0600084106000800000000F9
:100020000000000000000000000000002131000876
:100030004306000800000000C13100080532000836
:10004000C5330008C5330008C5330008C5330008B0
:10005000C5330008C5330008C5330008C5330008A0
:10006000C5330008C5330008C5330008C533000890
:10007000C5330008C5330008C5330008C533000880
:10008000C5330008C5330008C5330008C533000870
:10009000C5330008C5330008C5330008C533000860
:1000A000C5330008C5330008C5330008C533000850
:1000B000C5330008C533000845060008C5330008ED
:1000C000C5330008C5330008C5330008C533000830
:1000D000C5330008C5330008C5330008C533000820
:1000E000C5330008C5330008C53300080000000010
:1000F0000000000000000000000000000000000000
:0C01000000000000000000005FF808F1A3
:1001100010B5054C237833B9044B13B10448AFF341
:1001200000800123237010BD740000200000000037
:100130006843000808B5034B1BB103490348AFF3FC
:10014000008008BD0000000078000020684300081F
:1001500010B54FF40051064801F0F9F9054C21683B
:10016000054803F06BF923680133236010BD00BF1D
:1001700000100140900000208043000808B50121D4
:10018000014801F0D7F908BD0008014008B5026830
:10019000034B9A4200D008BD00F048FDFBE700BFCA
:1001A0000008004072B6FEE700B591B00023099345
:1001B0000B930C93019302930393049305930121F2
:1001C00006914FF48032079208930A9102230D930F
:1001D0000E924FF4E0130F9306A800F063FD80B970
:1001E0000F23019302210291002303934FF48062B5
:1001F0000492059301A800F093FF20B911B05DF8B7
:1002000004FBFFF7CFFFFFF7CDFF000008B500F0BC
:10021000FBFCFFF7C9FF00F025F800F0B7F901F08B
:1002200009FA0D4C01220D49204600F055F80C4A00
:100230000021204600F067F8204600F06FF902F038
:1002400025FD01F0E7F902F043FD052000F000FD77
:1002500000F076F9F9E700BFA81900207D01000839
:100260005101000810B588B0002204920592069250
:100270000792174B996941F010019961996901F052
:10028000100101910199996941F0200199619969E1
:1002900001F0200102910299996941F004019961EC
:1002A0009B6903F004030393039B0A4C4FF4005132
:1002B000204601F046F94FF40053049301230593BF
:1002C0000693079304A9204601F024F808B010BD56
:1002D000001002400010014070B504460D4616465D
:1002E0002822002103F0A2F84FF00003082262F355
:1002F0000713A3706560A847E37860F3C71366F33C
:100300008613E37070BD023140F82120704710B5AC
:10031000044643689847E37813F0070F02D0238818
:1003200001332380E378B0EBD31F11D01A46C3F317
:10033000C203013303F0070363F3C502E270022B2B
:100340000AD9D3B260F3C7136FF3C503E37003E0B8
:10035000E3786FF3C503E370E37803F00703052B3D
:100360000FD8DFE803F003234C920EBAE378C3F30F
:100370008012B2EBD31F05D0A378082262F30713D3
:10038000A37010BDA3786FF30713A370A3680BB11C
:100390002046984700232380A378012262F30303B9
:1003A000A370E37862F30203E370EAE7E378C3F350
:1003B0008012B2EBD31F10D0A378012262F307138F
:1003C000A370E3680BB12046984700232380E378AD
:1003D000022262F30203E370D3E72388C82BD0D94B
:1003E000A378052262F30713A370E3690BB12046DB
:1003F0009847E378052262F30203E370C1E7E378EC
:10040000C3F38012B2EBD31F0ED023883C2BB8D994
:10041000A37803F00F03012B21D0022B2AD0E3781D
:100420006FF30203E370ACE7A3786FF30713A370D5
:10043000A3680BB120469847A37803F00F0201325E
:1004400062F30303A37023690BB12046984700238E
:100450002380E378032262F30203E37091E7A37839
:10046000032262F30713A3706369002BD7D02046E1
:100470009847D4E7A378042262F30713A370A36913
:10048000002BCCD020469847C9E7E378C3F380120D
:10049000B2EBD31F18D0A378012262F30713A37025
:1004A000E3680BB12046984723883B2B07D80023ED
:1004B0002380E378022262F30203E37061E7E378CA
:1004C0006FF30203E3705CE723883C2B7FF659AFA0
:1004D000E3786FF30203E37053E7E378C3F380122A
:1004E000B2EBD31F0DD0A378012262F30713A370E0
:1004F000E3680BB120469847E3786FF30203E3709B
:100500003FE7A378062262F30713A370236A002B48
:100510003FF437AF2046984733E70000074B1A688F
:1005200013461BB1834206D05B6AFAE74262034B73
:100530001860002070474FF0FF3070479400002093
:1005400010B5044B1C6824B12046FFF7E0FE646A36
:10055000F9E710BD94000020C2B2044B5A60034B6F
:100560001B6813F0400FFAD0704700BF00380140FD
:1005700070B50C4616460025B54205DA14F8010B95
:10058000FFF7EAFF0135F7E7304670BD08B50A48C6
:100590000A4B03604FF4E133436000238360C36080
:1005A00003610C2242618361C36100F0FDFA00B96E
:1005B00008BDFFF7F7FDFBE7D01900200038014028
:1005C00010B586B000230293039304930593026849
:1005D000174B9A4201D006B010BD03F558439A69F3
:1005E00042F480429A619A6902F480420092009A31
:1005F0009A6942F004029A619B6903F00403019333
:10060000019B4FF40073029302230393032305938A
:10061000084C02A9204600F07DFE4FF4806302934F
:1006200000230393049302A9204600F073FED2E74F
:100630000038014000080140FEE7FEE7FEE7FEE764
:10064000FEE7704708B5024800F094F808BD00BF07
:10065000641A002000B583B0114B9A6942F0010280
:100660009A619A6902F001020092009ADA6942F0F6
:100670008052DA61DB6903F080530193019B002211
:100680000F216FF0010000F07DFF064A536823F050
:10069000E06343F00073536003B05DF804FB00BFF8
:1006A000001002400000014030B4036A056A25F0E2
:1006B00001050562846924F0F00444EA021423F081
:1006C0000A030B438461036230BC704730B4056A8F
:1006D00025F0100505628469036A24F4704444EA35
:1006E000023423F0A00343EA01138461036230BCA7
:1006F0007047836823F070030B4343F00703836064
:100700007047000090F83D30DBB2012B27D1022367
:1007100080F83D300268D36843F00103D36003687A
:10072000114A934210D0B3F1804F0DD0A2F594320C
:10073000934209D002F58062934205D01A6842F0D4
:1007400001021A60002070479A6802F00702062A28
:1007500007D01A6842F001021A6000207047012099
:1007600070470020704700BF002C01407047704761
:100770007047704710B5044603681A6912F0020FFB
:1007800011D0DA6812F0020F0DD06FF002021A6178
:100790000123037703689B6913F0030F70D0FFF701
:1007A000E6FF0023237723681A6912F0040F12D0A2
:1007B000DA6812F0040F0ED06FF004021A610223FF
:1007C000237723689B6913F4407F5FD02046FFF7AF
:1007D000CEFF0023237723681A6912F0080F12D086
:1007E000DA6812F0080F0ED06FF008021A610423C5
:1007F00023772368DB6913F0030F4ED02046FFF701
:10080000B6FF0023237723681A6912F0100F12D065
:10081000DA6812F0100F0ED06FF010021A61082380
:1008200023772368DB6913F4407F3DD02046FFF730
:100830009EFF0023237723681A6912F0010F03D06B
:10084000DA6812F0010F36D123681A6912F0800FAE
:1008500003D0DA6812F0800F34D123681A6912F0DD
:10086000400F03D0DA6812F0400F32D123681A69C2
:1008700012F0200F03D0DA6812F0200F30D110BD33
:10088000FFF774FF2046FFF773FF8AE72046FFF764
:100890006DFF2046FFF76CFF9BE72046FFF766FFE2
:1008A0002046FFF765FFACE72046FFF75FFF2046D5
:1008B000FFF75EFFBDE76FF001021A612046FFF708
:1008C00065FCC1E76FF080021A61204600F023F951
:1008D000C3E76FF040021A612046FFF74AFFC5E701
:1008E0006FF020021A61204600F014F9C7E70000FB
:1008F00003681B4A90420AD0B0F1804F07D0A2F59E
:100900009432904203D002F58062904203D123F0EA
:1009100070034A681343124A90420AD0B0F1804FE4
:1009200007D0A2F59432904203D002F58062904243
:1009300003D123F44073CA68134323F080034A6948
:10094000134303608B68C3620B688362044B984255
:1009500002D00123436170470B690363F9E700BFCD
:10096000002C014040B310B5044690F83D30F3B17F
:10097000022384F83D30214651F8040BFFF7B8FFFD
:10098000012384F8463084F83E3084F83F3084F800
:10099000403084F8413084F8423084F8433084F8A1
:1009A000443084F8453084F83D30002010BD80F894
:1009B0003C3000F077FEDBE70120704710B484681C
:1009C00024F47F4442EA03220A432243826010BC9B
:1009D000704790F83C30012B66D010B504460123D7
:1009E00080F83C30022380F83D300268936823F49D
:1009F0007F4323F0770393600B68602B40D022D8AD
:100A0000402B47D00BD9502B0ED1CA6849680068DB
:100A1000FFF74AFE50212068FFF76BFE04E0202B11
:100A20000CD008D9302B09D0012384F83D300020A8
:100A300084F83C0010BD0BB1102BF5D1194620688D
:100A4000FFF757FEF0E7702B0ED0B3F5005FEBD148
:100A5000CB684A6889680068FFF7B0FF226893682E
:100A600043F480439360DFE7CB684A688968006895
:100A7000FFF7A4FF2268936843F077039360D3E7FE
:100A8000CA6849680068FFF721FE60212068FFF707
:100A900030FEC9E7CA6849680068FFF705FE4021D3
:100AA0002068FFF726FEBFE70220704790F83C3031
:100AB000012B2BD030B4012380F83C30022380F886
:100AC0003D3003685C689D6824F070040A68224326
:100AD0005A6003680E4A93420AD0B3F1804F07D0A0
:100AE000A2F59432934203D002F58062934204D17E
:100AF00025F080054A6815439D60012380F83D304C
:100B0000002380F83C30184630BC70470220704704
:100B1000002C01407047704710B504460268136905
:100B200023F44053C1680B43136183680269134384
:100B300042691A430168CB6823F4B05323F00C03D5
:100B40001343CB600268536923F4407381690B43FC
:100B500053610268124B9A421FD000F09DFB00EBDC
:100B6000800303EB830362689200B3FBF2F20D484B
:100B7000A0FB02314909642303FB11231B0132331B
:100B8000A0FB03235B0903F0F00202EB011203F068
:100B90000F03216813448B6010BD00F08DFBDEE76E
:100BA000003801401F85EB5158B310B5044690F84A
:100BB0003D300BB3242384F83D302268D36823F4FE
:100BC0000053D3602046FFF7A7FF2268136923F480
:100BD000904313612268536923F02A03536122680A
:100BE000D36843F40053D36000202064202384F8AA
:100BF0003D3084F83E3010BD80F83C30FFF7E0FC1B
:100C0000D8E701207047000008B5074A136843F091
:100C100010031360032000F0A3FC0F2000F058FD28
:100C2000FFF718FD002008BD00200240034A1168AC
:100C3000034B1B780B441360704700BF141A00204D
:100C400000000020014B1868704700BF141A0020F4
:100C500038B50446FFF7F6FF0546B4F1FF3F02D072
:100C6000044B1B781C44FFF7EDFF401BA042FAD356
:100C700038BD00BF0000002082B0084B1B68084A46
:100C8000A2FB03235B0A00FB03F3019300BF019B5C
:100C90005A1E0192002BF9D102B0704708000020C3
:100CA000D34D6210002800F0F18170B582B0044687
:100CB000036813F0010F2CD0AA4B5B6803F00C0300
:100CC000042B1DD0A74B5B6803F00C03082B12D03C
:100CD0006368B3F5803F41D0002B55D103F18043C9
:100CE00003F504331A6822F480321A601A6822F479
:100CF00080221A6037E09B4B5B6813F4803FE7D09B
:100D0000984B1B6813F4003F03D06368002B00F07E
:100D1000BF81236813F0020F75D0924B5B6813F00C
:100D20000C0F5FD08F4B5B6803F00C03082B54D083
:100D30002369002B00F089808B4B01221A60FFF79A
:100D400081FF0546874B1B6813F0020F74D1FFF734
:100D500079FF401B0228F5D903209EE1814A1368E0
:100D600043F480331360636843B3FFF76BFF0546BA
:100D70007C4B1B6813F4003FCBD1FFF763FF401B94
:100D80006428F5D9032088E1B3F5A02F09D0754B6D
:100D90001A6822F480321A601A6822F480221A60DB
:100DA000E1E703F18043A3F53C331A6842F4802263
:100DB0001A601A6842F480321A60D4E7FFF742FFE3
:100DC0000546684B1B6813F4003FA2D0FFF73AFFBB
:100DD000401B6428F5D903205FE1624B5B6813F484
:100DE000803FA5D15F4B1B6813F0020F03D023692E
:100DF000012B40F04F815B4A136823F0F8036169CF
:100E000043EAC1031360236813F0080F32D0A369CB
:100E1000002B45D0554B01221A60FFF713FF054602
:100E2000504B5B6A13F0020F21D1FFF70BFF401B01
:100E30000228F5D9032030E14A4A136823F0F80369
:100E4000616943EAC1031360DDE7474B00221A6082
:100E5000FFF7F8FE0546434B1B6813F0020FD2D094
:100E6000FFF7F0FE401B0228F5D9032015E1012011
:100E7000FFF702FF236813F0040F00F09780394B4F
:100E8000DB6913F0805F1DD1364BDA6942F0805286
:100E9000DA61DB6903F080530193019B012512E0C5
:100EA000324B00221A60FFF7CDFE05462D4B5B6AE0
:100EB00013F0020FDED0FFF7C5FE401B0228F5D964
:100EC0000320EAE000252A4B1B6813F4807F11D031
:100ED000E368012B22D0002B38D103F1804303F5C6
:100EE00004331A6A22F001021A621A6A22F004021A
:100EF0001A6218E01E4A136843F480731360FFF708
:100F0000A1FE06461A4B1B6813F4807FE0D1FFF761
:100F100099FE801B6428F5D90320BEE0114A136AAC
:100F200043F001031362E36873B3FFF78BFE0646D9
:100F30000C4B1B6A13F0020F37D1FFF783FE801BA7
:100F400041F288339842F3D90320A6E0052B11D053
:100F5000044B1A6A22F001021A621A6A22F0040291
:100F60001A62E0E700100240000042428004424260
:100F7000007000404D4B1A6A42F004021A621A6A6D
:100F800042F001021A62CEE7FFF75CFE0646474BCD
:100F90001B6A13F0020F08D0FFF754FE801B41F2CA
:100FA00088339842F3D9032077E0E5B9E369002B51
:100FB00072D03E4A526802F00C02082A56D0022B28
:100FC00017D03B4B00221A60FFF73CFE0446374B1C
:100FD0001B6813F0007F47D0FFF734FE001B022888
:100FE000F5D9032059E0314AD36923F08053D36106
:100FF000DCE72F4B00221A60FFF724FE05462B4B3F
:101000001B6813F0007F06D0FFF71CFE401B022870
:10101000F5D9032041E0236AB3F5803F1AD0234974
:101020004B6823F47413226A606A024313434B60D3
:101030001F4B01221A60FFF705FE04461B4B1B687D
:1010400013F0007F0ED1FFF7FDFD001B0228F5D93C
:10105000032022E0154A536823F40033A1680B43B0
:101060005360DCE7002018E0002016E0012B16D0CA
:101070000E4B5B6803F48031226A914211D103F474
:101080007013626A93420ED1002006E0012070477F
:10109000012002E0012000E0002002B070BD01202C
:1010A000FBE70120F9E70120F7E700BF001002404D
:1010B0006000424286B0164B0FCB0DF1180C0CE9C4
:1010C0000F0040F20123ADF80430124B5B6803F0CF
:1010D0000C02082A02D0104806B07047C3F38342BE
:1010E000624412F8102C13F4803F0CD0094B5B685B
:1010F000C3F34043634413F8143C074800FB02F079
:10110000B0FBF3F0E8E7054800FB02F0E4E700BFBE
:10111000984300080010024000127A0000093D00C8
:10112000002800F0A08070B50D460446524B1B68A5
:1011300003F007038B420BD24F4A136823F00703D7
:101140000B431360136803F007038B4240F08D805C
:10115000236813F0020F17D013F0040F04D0474A8E
:10116000536843F4E0635360236813F0080F04D01E
:10117000424A536843F460535360404A536823F033
:10118000F003A1680B435360236813F0010F31D0C3
:101190006368012B20D0022B25D0384A126812F048
:1011A000020F64D035494A6822F0030213434B60B2
:1011B000FFF748FD0646314B5B6803F00C0362689D
:1011C000B3EB820F16D0FFF73DFD801B41F2883351
:1011D0009842F0D9032045E0284A126812F4003FF3
:1011E000E0D101203EE0254A126812F0007FD9D1FB
:1011F000012037E0204B1B6803F00703AB420AD9FC
:101200001D4A136823F007032B431360136803F090
:101210000703AB422DD1236813F0040F06D0174A01
:10122000536823F4E063E1680B435360236813F0D1
:10123000080F07D0114A536823F46053216943EA29
:10124000C1035360FFF736FF0C4B5B68C3F3031316
:101250000B4AD35CD8400B4B18600B4B186800F05E
:1012600037FA002070BD012070470120FAE7012005
:10127000F8E70120F6E700BF00200240001002401E
:10128000AC4300080800002004000020014B18684F
:10129000704700BF0800002008B5FFF7F7FF044BB8
:1012A0005B68C3F30223034AD35CD84008BD00BF88
:1012B00000100240BC43000808B5FFF7E7FF044BED
:1012C0005B68C3F3C223034AD35CD84008BD00BFA8
:1012D00000100240BC4300080F2303600B4B5A6808
:1012E00002F0030242605A6802F0F00282605A681B
:1012F00002F4E062C2605B68DB0803F4E063036150
:10130000034B1B6803F007030B607047001002409B
:1013100000200240F0B482B000252C46A3E07F4FAD
:10132000BB4210D007D97E4FBB420CD007F58037A7
:10133000BB4208D013E0A7F58017BB4203D007F5E6
:101340007027BB4207D18B68002B58D0012B51D09E
:101350004261082503E0A7F58017BB42F3D0FF2EBA
:101360004FD88446FF2E4FD8A200DCF800300F275C
:10137000974023EA070305FA02F21343CCF8003042
:101380004B6813F0805F6DD0664B9A6942F00102A2
:101390009A619B6903F001030193019BA208971CCA
:1013A000614B53F8273004F00307BF004FF00F0CD8
:1013B0000CFA07FC23EA0C0C5C4B98422AD003F58C
:1013C0008063984200F08A8003F58063984200F0C1
:1013D000878003F5806398421AD004231BE0CD6810
:1013E000BDE7CD680435BAE7CD680835B7E7CD6805
:1013F0000C35B4E702610825B1E70025AFE7042505
:10140000ADE700F1040CADE7A4F108029200ACE7EF
:10141000032300E00023BB4043EA0C030232424FA7
:1014200047F822304B6813F4803F5BD0404A136882
:10143000334313604B6813F4003F59D03C4A536860
:10144000334353604B6813F4801F57D0384A936876
:10145000334393604B6813F4001F55D0344AD3686C
:101460001E43D66001340B6833FA04F252D00122D5
:10147000A24003EA020632EA0303F3D14B68122BBF
:101480003FF64DAF122B3FF66AAF01A757F823F096
:1014900047130008DF130008E9130008FB130008D6
:1014A0005F1300085F1300085F1300085F13000854
:1014B0005F1300085F1300085F1300085F13000844
:1014C0005F1300085F1300085F1300085F13000834
:1014D0005F130008E3130008EF13000801239AE7E5
:1014E000022398E7124A136823EA06031360A1E770
:1014F0000F4A536823EA06035360A3E70C4A936834
:1015000023EA06039360A5E7094AD36823EA06069F
:10151000D660A7E702B0F0BC704700BF0000221001
:10152000000031100010024000000140000801409E
:10153000000401408368194201D001207047002057
:1015400070470AB101617047090401617047C368BF
:1015500001EA030221EA030141EA02410161704705
:10156000074AD36823F4E0631B041B0C000200F459
:10157000E060034343F0BF6343F40033D36070473C
:1015800000ED00E030B4174BDB68C3F30223C3F176
:101590000704042C28BF04241D1D062D18D9033B65
:1015A0004FF0FF3505FA04F421EA0401994005FAE9
:1015B00003F322EA0303194300280BDB0901C9B234
:1015C00000F1604000F5614080F8001330BC7047C6
:1015D0000023E5E700F00F000901C9B2024B1954DE
:1015E000F4E700BF00ED00E014ED00E0002807DBA9
:1015F00000F01F02400901239340024A42F82030C4
:10160000704700BF00E100E0704708B5012001F01D
:10161000FBFBFBE708B5044A0021044801F07EFB10
:10162000034B186008BD00BFD04300080B1600082C
:10163000181A002000B587B0002302930393049387
:101640000593009301931548154A02604360836037
:101650004FF6FF72C2600361436180238361FFF72D
:1016600081F990B94FF48053029302A90B48FFF718
:10167000B0F968B900230093019369460748FFF762
:1016800015FA40B907B05DF804FBFEF78BFDE9E7FA
:10169000FEF788FDEEE7FEF785FDF3E71C1A002054
:1016A000002C01400268094B9A4200D0704782B07A
:1016B00003F564439A6942F400629A619B6903F4FA
:1016C00000630193019B02B0704700BF002C0140F2
:1016D00030B589B00446214BDA6942F00402DA6180
:1016E000DB6903F004030193019B02A903A8FFF740
:1016F000F3FD069BCBB9FFF7CFFD03461848A0FBCF
:1017000003239B0C013B1748174A026040F2E73263
:10171000C26043600023036183608361FFF722F9A5
:10172000054630B1284609B030BDFFF7B5FD43008E
:10173000E4E70C48FEF7E6FF05460028F2D11E203C
:10174000FFF754FF0F2C01D90125EBE700222146BA
:101750001E20FFF717FF054B1C60E3E70010024057
:1017600083DE1B43641A00200008004004000020B0
:1017700000F1080343604FF0FF328260C3600361F1
:1017800000230360704700230361704743684B6088
:101790009A688A6051609960086103680133036048
:1017A000704730B40D68B5F1FF3F11D000F1080368
:1017B0001C465B681A68AA42FAD963684B60996054
:1017C0008C606160086103680133036030BC70475E
:1017D0000469F2E70369416882688A604168516080
:1017E0005A68824206D0002202611A68013A1A60E1
:1017F0001868704782685A60F5E710B5044601F032
:10180000A1FCA26BE36B9A4204D0002401F0BCFC63
:10181000204610BD0124F9E710B5044601F092FC02
:10182000A36B23B9012401F0AFFC204610BD0024B6
:10183000F9E770B504461546866B026C5AB9036821
:101840001BB100200136A66370BD406800F0BEFFEA
:1018500000236360F6E76DB9806801F0D9FD226C62
:10186000A3681344A3606268934219D32368A360FA
:101870002846E7E7C06801F0CBFD226C5142E368DF
:101880009B1AE3602268934202D263680B44E360D0
:10189000022D01D00020D5E726B1013E0020D1E77E
:1018A0002846CFE70020CDE70346026C6AB110B5A9
:1018B0000846D9681144D9605C68A14201D319680F
:1018C000D960D96801F0A4FD10BD704738B5054650
:1018D00001F038FC95F8454064B203E000F060FF89
:1018E000013C64B2002C08DD6B6A33B105F12400C1
:1018F00000F0C2FE0028F3D0F0E7FF2385F8453062
:1019000001F042FC01F01EFC95F8444064B203E093
:1019100000F046FF013C64B2002C08DD2B6933B1B6
:1019200005F1100000F0A8FE0028F3D0F0E7FF2337
:1019300085F8443001F028FC38BD000038B5E0B12E
:101940000D46044601F0FEFB2168E26B236C03FBAD
:10195000021060600020A063A160013A02FB031343
:10196000E360FF2384F8443084F84530EDB92369FF
:1019700063B901F009FC012038BD4FF0500383F337
:101980001188BFF36F8FBFF34F8FFEE704F1100094
:1019900000F072FE0028ECD0084B4FF080521A6025
:1019A000BFF34F8FBFF36F8FE3E704F11000FFF732
:1019B000DFFE04F12400FFF7DBFEDAE704ED00E0D0
:1019C00038B51D46049C0B4649B92460E063236486
:1019D00001212046FFF7B2FF84F84C5038BD226049
:1019E000F4E740B94FF0500383F31188BFF36F8FD2
:1019F000BFF34F8FFEE730B585B01C46054653B1A7
:101A000092B189B94FF0500383F31188BFF36F8F00
:101A1000BFF34F8FFEE74FF0500383F31188BFF3FE
:101A20006F8FBFF34F8FFEE76AB150230393039B81
:101A3000502B13D04FF0500383F31188BFF36F8FF7
:101A4000BFF34F8FFEE70029EFD04FF0500383F331
:101A50001188BFF36F8FBFF34F8FFEE7012384F828
:101A6000463000949DF820302846FFF7A9FF204615
:101A700005B030BDF0B585B0019288B10E461D4667
:101A80000446B1B1022D20D1E36B012B1DD04FF0E4
:101A9000500383F31188BFF36F8FBFF34F8FFEE7BF
:101AA0004FF0500383F31188BFF36F8FBFF34F8F55
:101AB000FEE7036C002BE5D04FF0500383F3118851
:101AC000BFF36F8FBFF34F8FFEE700F06FFE074647
:101AD00058B9019B002B44D04FF0500383F3118879
:101AE000BFF36F8FBFF34F8FFEE7002739E02A4621
:101AF00031462046FFF79DFE626A6AB938B13C4B19
:101B00004FF080521A60BFF34F8FBFF36F8F01F019
:101B10003BFB012005B0F0BD04F1240000F0ACFD5A
:101B20000028F4D0324B4FF080521A60BFF34F8F31
:101B3000BFF36F8FEBE701F027FB0020EAE702A875
:101B400000F0E0FD012719E0002384F8443021E093
:101B5000002384F8453023E02046FFF7B7FE00F06D
:101B60006BFC01F0EFFAA26BE36B9A42BFD3022D3C
:101B7000BDD0019B002BDED0002FE0D001F004FB94
:101B800000F0C0FB01F0DEFA94F844305BB2B3F130
:101B9000FF3FD9D094F845305BB2B3F1FF3FD7D0C7
:101BA00001F0F2FA01A902A800F0B8FDC8B9204678
:101BB000FFF723FE0028CFD0019904F1100000F0B8
:101BC00027FD2046FFF782FE00F036FC0028C8D132
:101BD000074B4FF080521A60BFF34F8FBFF36F8FE8
:101BE000BFE72046FFF772FE00F026FC002091E7D9
:101BF00004ED00E02DE9F84390B1894690461F4678
:101C00000446B1B1022F20D1E36B012B1DD04FF060
:101C1000500383F31188BFF36F8FBFF34F8FFEE73D
:101C20004FF0500383F31188BFF36F8FBFF34F8FD3
:101C3000FEE7036C002BE5D04FF0500383F31188CF
:101C4000BFF36F8FBFF34F8FFEE701F069FBEFF338
:101C500011864FF0500383F31188BFF36F8FBFF3EA
:101C60004F8FA26BE36B9A4206D3022F04D0002061
:101C700086F31188BDE8F88394F845506DB23A4672
:101C800049462046FFF7D5FDB5F1FF3F05D06B1C57
:101C90005BB284F845300120EAE7636A0BB90120A2
:101CA000E6E704F1240000F0E7FC30B1B8F1000FE2
:101CB00005D00120C8F80000DAE70120D8E70120AC
:101CC000D6E70000F0B585B0019290B10E4604460B
:101CD000C1B100F06BFD074600BB019B002B5CD03F
:101CE0004FF0500383F31188BFF36F8FBFF34F8F13
:101CF000FEE74FF0500383F31188BFF36F8FBFF3FC
:101D00004F8FFEE7036C002BE3D04FF0500383F3BB
:101D10001188BFF36F8FBFF34F8FFEE700273CE0C2
:101D200031462046FFF7C0FD013DA563236923B975
:101D300001F02AFA012005B0F0BD04F1100000F016
:101D40009BFC0028F4D0354B4FF080521A60BFF353
:101D50004F8FBFF36F8FEBE701F016FA0020EAE731
:101D600002A800F0CFFC012721E0002384F84430D2
:101D700029E0002384F845302BE02046FFF7A6FD3C
:101D800000F05AFB09E02046FFF7A0FD00F054FBED
:101D90002046FFF741FD00283DD101F0D3F9A56BA6
:101DA000002DBDD1019B002BD6D0002FD8D001F043
:101DB000EBF900F0A7FA01F0C5F994F844305BB2F2
:101DC000B3F1FF3FD1D094F845305BB2B3F1FF3FA0
:101DD000CFD001F0D9F901A902A800F09FFC00289A
:101DE000D1D12046FFF718FD0028C6D0019904F193
:101DF000240000F00DFC2046FFF768FD00F01CFBFE
:101E00000028CAD1054B4FF080521A60BFF34F8FA4
:101E1000BFF36F8FC1E700208DE700BF04ED00E046
:101E2000002300E00133072B0BD8064A52F8332079
:101E3000002AF7D1034A42F8331002EBC30358607B
:101E400070477047AC1A002070B504460D46164620
:101E500001F078F994F844305BB2B3F1FF3F0DD054
:101E600094F845305BB2B3F1FF3F0BD001F08CF931
:101E7000A36B5BB12046FFF729FD70BD002384F8FA
:101E80004430EDE7002384F84530EFE73246294639
:101E900004F1240000F0D4FBECE70000084B1B68C1
:101EA0001B6823B9074B4FF0FF321A607047044B91
:101EB0001B68DB68DB685A68024B1A60704700BF1A
:101EC0009C000020440500202DE9F04780460D4687
:101ED00017469946089EDDF824A00A9C9200A52189
:101EE000206B01F0A3FA236B07F18042013A03EB68
:101EF000820727F0070700220F2A07D8A95CA3183A
:101F000083F83410AB5C0BB10132F5E7002384F8A1
:101F10004330372E00D93726E662E6640025256572
:101F2000201DFFF730FC04F11800FFF72CFC2461A2
:101F3000C6F13806A6616462656584F858504A4661
:101F40004146384601F0D6F82060BAF1000F01D0C2
:101F5000CAF80040BDE8F08738B50024372C08D80F
:101F600004EB840293000E481844FFF701FC01348F
:101F7000F4E70C4D2846FFF7FBFB0B4C2046FFF720
:101F8000F7FB0A48FFF7F4FB0948FFF7F1FB0948A4
:101F9000FFF7EEFB084B1D60084B1C6038BD00BF0F
:101FA000A40000201C050020300500204C05002066
:101FB00078050020640500209C000020A00000207F
:101FC00010B5044601F0BEF8214A136801331360CE
:101FD000204B1B685BB1204B1B686BB91D4B1B680A
:101FE000DA6AE36A9A4207D81A4B1C6004E0194B7C
:101FF0001C601368012B27D0184A13680133136043
:102000006364E06A164B1B68984201D9144B186050
:1020100000EB8000211D134B03EB8000FFF7B6FBA4
:1020200001F0B2F80C4B1B686BB10A4B1B68DA6A03
:10203000E36A9A4207D20C4B4FF080521A60BFF30A
:102040004F8FBFF36F8F10BDFFF786FFD4E700BF40
:1020500004050020980000206005002014050020E1
:1020600018050020A400002004ED00E010B504468F
:1020700090F8593063B1012B11D0022B0ED04FF0E4
:10208000500383F31188BFF36F8FBFF34F8FFEE7C9
:10209000006B00F0C7FF204600F0C4FF10BD00F049
:1020A000C1FFFBE70F4B1B68D3B110B501F04AF835
:1020B0000D4BDB68DC68201DFFF78CFB0B4A1368B7
:1020C000013B1360074A1368013B136001F05CF8A1
:1020D0002046FFF7CBFF034B1B68002BE6D110BD5A
:1020E000704700BF08050020780500200405002087
:1020F00008B5FFF7D7FF064B1B68012BF9D9054B35
:102100004FF080521A60BFF34F8FBFF36F8FF0E72D
:10211000A400002004ED00E070B504460D46174B06
:102120001E68174B18680430FFF754FBB4F1FF3FEB
:102130000DD03444124B1B685C60A64210D9114B81
:1021400018680F4B19680431FFF72BFB70BD002D89
:10215000EFD00B4B196804310B48FFF717FBF5E77D
:102160000A4B1868064B19680431FFF71AFB084B35
:102170001B68A342EAD9064B1C60E7E78C050020E8
:1021800098000020A0000020640500209C00002092
:102190004405002070B586B00B9D0C9C75B1B4B1A0
:1021A0005C260496049E5C2E1AD04FF0500383F3F5
:1021B0001188BFF36F8FBFF34F8FFEE74FF05003CF
:1021C00083F31188BFF36F8FBFF34F8FFEE74FF09C
:1021D000500383F31188BFF36F8FBFF34F8FFEE778
:1021E0002563022584F8595000250395029405AD16
:1021F00001950A9D0095FFF767FE2046FFF7E0FE78
:10220000059806B070BD2DE9F04385B007468846B5
:1022100014461E46900000F08DFE00B381465C20FF
:1022200000F088FE0546B0B1C0F83090E5B100235B
:1022300085F85930039302950D9B01930C9B0093F5
:102240003346224641463846FFF73EFE2846FFF712
:10225000B7FE012005E0484600F0E4FEE6E74FF057
:10226000FF3005B0BDE8F0834FF0FF30F9E7000024
:1022700010B588B000240594069407AA06A905A8FD
:1022800000F0E4FD059B0293069B01930094234616
:10229000079A17491748FFF77DFF48B100F04AFB3E
:1022A0000346012B06D0B3F1FF3F18D008B010BD94
:1022B0000023F6E74FF0500383F31188BFF36F8FCD
:1022C000BFF34F8F0C4B4FF0FF321A600B4B0122C4
:1022D0001A600B4B00221A6000F0C6FFE6E74FF0D1
:1022E000500383F31188BFF36F8FBFF34F8FFEE767
:1022F000F4430008F1200008440500206005002098
:102300008C050020024A136801331360704700BF38
:1023100010050020014B1868704700BF8C05002095
:10232000F8B53A4B1B68002B65D1394B1D68013558
:102330001D60C5B9374B1B681B6843B14FF0500394
:1023400083F31188BFF36F8FBFF34F8FFEE7314ADE
:102350001168314B186810601960304A13680133F6
:102360001360FFF79BFD2E4B1B68AB420CD900247A
:102370002C4B1B68DB6A03EB83039A002A4B9B58A8
:10238000012B3DD901243BE0002416E0244B4FF003
:10239000FF321A60ECE7224A1360E9E703EB83039C
:1023A0009A00394620481044FFF7F0F9F26A1D4BB5
:1023B0001B68DB6A9A4200D30124164B1B681B681A
:1023C000002BE3D0134B1B68DB68DE6873689D420B
:1023D000E1D3371D3846FFF7FDF9B36A1BB106F1AB
:1023E0001800FFF7F7F9F36A104A12689342D5D93B
:1023F0000E4A1360D2E70E4A1368013313600024BB
:102400000C4B1B6803B101242046F8BD10050020C9
:102410008C0500209C000020A00000204805002022
:102420004405002098000020A4000020180500208A
:102430000C0500209005002038B5344B1B6843B9CB
:102440004FF0500383F31188BFF36F8FBFF34F8FAB
:10245000FEE700F077FE2D4B1A68013A1A601B6800
:10246000002B4DD12A4B1B680BB9002449E00024F6
:10247000284B1B681BB3274BDB68DC6804F1180092
:10248000FFF7A8F9251D2846FFF7A4F9E06A224BBB
:102490001B68984201D9204B186000EB8000294648
:1024A0001E4B03EB8000FFF771F9E26A1C4B1B68BF
:1024B000DB6A9A42DCD31B4B01221A60D8E70CB1CD
:1024C000FFF7ECFC184B1C6874B9164B1C68C4B1C0
:1024D000164B4FF080521A60BFF34F8FBFF36F8FD0
:1024E00001240EE0013C07D0FFF71AFF0028F9D0C5
:1024F0000C4B01221A60F5E70B4B00221A60E4E74F
:10250000002400F041FE204638BD00BF1005002029
:10251000040500204C05002018050020A400002020
:1025200098000020900500200C05002004ED00E03C
:1025300010B5A8B104460F4B1B6843B14FF05003D0
:1025400083F31188BFF36F8FBFF34F8FFEE7FFF761
:10255000D9FE00212046FFF7DFFDFFF76DFF38B9F8
:10256000054B4FF080521A60BFF34F8FBFF36F8F50
:1025700010BD00BF1005002004ED00E01F4B1B68DC
:102580001BB11F4B01221A6070471D4B00221A60BD
:102590001C4B1B6803EB83018A001B498A585AB9FC
:1025A0000BB1013BF6E74FF0500383F31188BFF303
:1025B0006F8FBFF34F8FFEE710B403EB83008200F1
:1025C0000A4450684068506003EB8304A20014463C
:1025D0000832114488420CD003EB830291000A4A6E
:1025E0000A445268D168094A1160064A136010BC57
:1025F00070474068044A22445060EDE7100500200F
:102600009005002018050020A4000020980000205C
:1026100058B110B50C46094B19681831FFF7C1F8CD
:1026200001212046FFF778FD10BD4FF0500383F3E2
:102630001188BFF36F8FBFF34F8FFEE79800002024
:1026400038B570B10C4615460A4B19681831FFF7BA
:102650009DF80DB14FF0FF3429462046FFF75CFD91
:1026600038BD4FF0500383F31188BFF36F8FBFF372
:102670004F8FFEE79800002038B5C368DC6824B3AC
:1026800004F118052846FFF7A5F8184B1B682BBB6B
:10269000251D2846FFF79EF8E06A154B1B689842F7
:1026A00001D9134B186000EB80002946114B03EB56
:1026B0008000FFF76BF8E26A0F4B1B68DB6A9A42F7
:1026C00011D901200D4B18600EE04FF0500383F339
:1026D0001188BFF36F8FBFF34F8FFEE7294608487D
:1026E000FFF754F8E7E7002038BD00BF10050020D1
:1026F00018050020A400002098000020900500206C
:102700004C050020034B1B680360034B1B684360B0
:10271000704700BF480500208C050020F8B5C8B1FF
:102720000C460546F9B100F00DFD1B4B19686B68AE
:10273000C81A2268B2F1FF3F26D02F68174E3668BC
:10274000B74201D08B4224D9824215D8002323609E
:1027500001241AE04FF0500383F31188BFF36F8F09
:10276000BFF34F8FFEE74FF0500383F31188BFF3A1
:102770006F8FBFF34F8FFEE75B1A13442360284629
:10278000FFF7C0FF002400E0002400F0FDFC20461D
:10279000F8BD0124F9E700BF8C05002048050020A2
:1027A000014B01221A60704790050020054B1B6801
:1027B00033B1054B1B680BB10020704702207047F6
:1027C00001207047600500201005002000283BD044
:1027D00038B504461E4B1B68834208D04FF05003A7
:1027E00083F31188BFF36F8FBFF34F8FFEE7036D45
:1027F00043B94FF0500383F31188BFF36F8FBFF3DA
:102800004F8FFEE7013B0365C16AC26C91421DD048
:102810000BB1002038BD051D2846FEF7DBFFE06C3C
:10282000E062C0F13803A3610A4B1B68984201D9EA
:10283000084B186000EB80002946074B03EB800033
:10284000FEF7A4FF0120E5E7002070470020E1E744
:102850009800002018050020A4000020064B1A68EC
:102860001368B3FA83F35B09036013B9D36818687C
:1028700070470020704700BF9405002008B54160F4
:10288000006191420CD8D21A83699A4201D3012087
:1028900008BD011D094B1868FEF783FF0020F7E70C
:1028A0009A4201D2994206D2011D054B1868FEF7E3
:1028B00078FF0020ECE70120EAE700BF9805002040
:1028C0009405002030B583B000F03CFC114B1B6830
:1028D0001BB100F059FC03B030BD0F4D2846FEF788
:1028E00047FF0E4C2046FEF743FF0D4B1D600D4B7E
:1028F0001C60002300930C4B0C4A10210A20FFF7A8
:1029000070F8044B18600028E3D00949FFF788FAF3
:10291000DFE700BFB80600203C060020500600207C
:102920009405002098050020680600209C050020E2
:10293000FC43000810B588B0FFF7C4FF124B1B68BA
:10294000CBB100240594069407AA06A905A800F0B7
:1029500089FA059B0293069B019302230093234669
:10296000079A0A490A48FFF715FC0A4A106010B195
:10297000012008B010BD4FF0500383F31188BFF35E
:102980006F8FBFF34F8FFEE7B806002004440008A6
:10299000752C0008BC060020C0B110B584B01446E8
:1029A0001A4603461648006838B300910194029312
:1029B00005291CDCFFF7FAFE022810D000231A4676
:1029C00069460F480068FFF755F814E04FF05003D0
:1029D00083F31188BFF36F8FBFF34F8FFEE70023A0
:1029E000069A694606480068FFF744F803E00023AA
:1029F0006946FFF7FFF804B010BD0020FBE700BFF9
:102A0000B806002070B582B01A4B1B681A6852B322
:102A1000DB681E68DC68251D2846FEF7DBFE636A5E
:102A200020469847E369012BEED1A36933449E42C7
:102A300007D26360246129460E4B1868FEF7B1FE89
:102A4000E2E7002100910B4632462046FFF7A4FF43
:102A50000028D9D14FF0500383F31188BFF36F8F53
:102A6000BFF34F8FFEE7044A106802490860136005
:102A700002B070BD940500209805002038B50546C9
:102A8000FFF748FC0446074B1B68834205D8002328
:102A90002B60044B1C60204638BDFFF7B3FF0123B9
:102AA0002B60F6E76406002070B582B005460E463E
:102AB000144B1B68DB68DC68201DFEF78BFEE369A6
:102AC000012B04D0636A2046984702B070BDA1690B
:102AD0002B46324629442046FFF7D0FE0028F1D08D
:102AE000002100910B462A462046FFF755FF00289B
:102AF000E8D14FF0500383F31188BFF36F8FBFF31A
:102B00004F8FFEE79405002070B582B006460C4654
:102B1000FFF7F8FB01A8FFF7B1FF019B1BBB0546C0
:102B20000CB9B04218D22CB1114B1B681C68B4FA16
:102B300084F464092246711B0E4B1868FFF784F970
:102B4000FFF77AFC88B90C4B4FF080521A60BFF344
:102B50004F8FBFF36F8F08E0FFF76EFC29463046BA
:102B6000FFF7A2FF01E0FFF767FC02B070BD00BFF6
:102B700098050020B806002004ED00E010B588B0EC
:102B800006E007990698059B9847049B002B0BDAF3
:102B9000002204A9364B1868FFF794F8002865D086
:102BA000049B002BF1DAECE7069C636913B1201D4E
:102BB000FEF710FE03A8FFF761FF049B092BE7D87F
:102BC00001A252F823F000BFF12B0008F12B0008FE
:102BD000F12B0008912B0008372C00085D2C000811
:102BE000F12B0008F12B0008912B0008372C00086E
:102BF000059BA169024619442046FFF73FFE0028C5
:102C0000C6D0636A20469847E369012BC0D1A26908
:102C1000002100910B46059802442046FFF7BCFEB8
:102C20000028B5D14FF0500383F31188BFF36F8FA5
:102C3000BFF34F8FFEE70599A16131B1034602460C
:102C400001442046FFF71AFEA2E74FF0500383F33A
:102C50001188BFF36F8FBFF34F8FFEE794F82C30CE
:102C6000002B95D1204600F0DDF991E708B010BDAA
:102C7000B806002000B583B001A8FFF7EFFD019969
:102C8000FFF742FFFFF77AFFF6E70000EFF3058357
:102C900093B9EFF3108393B90C4B1868022804D052
:102CA00080B90A4B01221A607047EFF31183002BA1
:102CB000F6D06FF0050070476FF0050070476FF0B9
:102CC000050070474FF0FF30704700BF1C0900201F
:102CD00008B5EFF30583B3B9EFF31083B3B90E4B27
:102CE0001B68022B08D0012B13D10B4B02221A6058
:102CF000FFF7BEFA002008BDEFF31182002AF2D0E0
:102D00006FF00500F7E76FF00500F4E76FF00500DE
:102D1000F1E74FF0FF30EEE71C090020F0B587B077
:102D200000240494EFF30584002C43D1EFF31083C7
:102D3000002B3FD1334B1B68022B21D0002839D008
:102D400000238DF8173062B31568EDB1936903B9AC
:102D500018235C1E372C51D8546814F0010F4FD142
:102D60005669A6B14FEA960C94682CB1D7685B2FD0
:102D700002D9176907B106BB64B14FF0FF3416E002
:102D8000EFF31183B3B9D9E70DF11705DEE74FF083
:102D9000800CE9E7D46894B914699CB14FF0FF3412
:102DA00005E0002418234FF0800C0DF11705012CCD
:102DB0000AD0ACB1049807B0F0BD0124F7E74FF09A
:102DC000FF34F4E70024F2E7146992680292019458
:102DD00000930B4662462946FFF7DCF90490E9E7C9
:102DE00004AA019200930B461FFA8CF22946FFF7C2
:102DF0000AFA0128DED000230493DBE70020DAE79B
:102E00000020D8E71C09002008B5EFF30583A3B91B
:102E1000EFF31083A3B90C4B1B68022B02D040B90F
:102E2000002008BDEFF31183002BF8D06FF00500F0
:102E3000F7E7FFF77DFB0020F3E76FF00500F0E711
:102E40006FF00500EDE700BF1C090020034B036095
:102E5000034B0B6080231360704700BFC008002045
:102E6000C0060020034B0360034B0B604FF48073DC
:102E700013607047200D002020090020124A12F034
:102E8000070F1ED0D11D21F00701C1F54063134487
:102E90000A460E480260002141601344083B23F0BB
:102EA00007030B48036059601960991A5160136059
:102EB000084B1960084B1960084B4FF000421A602C
:102EC00070474FF44063E4E7800D00208C19002028
:102ED0007C0D002088190020841900208019002012
:102EE00010B4124B1A461B688342FBD35168541826
:102EF000844209D041684418A3420AD0036090423A
:102F000000D0106010BC704740680144516010460A
:102F1000F0E7074C2468A34206D05B68194441607F
:102F200013681B680360EAE70460E8E78C19002077
:102F30007C0D002070B50446FFF7E4F9344B1B68A4
:102F4000A3B1344B1B681C424AD134B1083414F08D
:102F5000070F02D024F007040834002C42D02E4B77
:102F60001B68A3424DD32D4B1D6804E0FFF786FF7D
:102F7000E7E72B4615466A68A24202D22A68002A71
:102F8000F7D1234A1268AA423DD01E6808362A6843
:102F90001A606B681B1B102B10D9281910F0070F33
:102FA00008D04FF0500383F31188BFF36F8FBFF346
:102FB0004F8FFEE743606C60FFF792FF6A68164927
:102FC0000B689B1A0B60164909688B4201D21449A1
:102FD0000B60104B1B6813436B6000232B6002E0F7
:102FE000002600E00026FFF727FA16F0070F0CD0A6
:102FF0004FF0500383F31188BFF36F8FBFF34F8FF0
:10300000FEE70026EFE70026EDE7304670BD00BF83
:103010007C0D002080190020841900208C190020CC
:103020008819002080B338B50446A0F1080550F88F
:10303000043C164A1268134208D14FF0500383F340
:103040001188BFF36F8FBFF34F8FFEE750F8081C56
:1030500041B14FF0500383F31188BFF36F8FBFF37B
:103060004F8FFEE723EA020340F8043CFFF74AF9DA
:1030700054F8041C064A13680B4413602846FFF7F3
:103080002FFFFFF7D9F938BD704700BF8019002026
:103090008419002082B0002301930D4B1B68B3F10B
:1030A000FF3F08D04FF0500383F31188BFF36F8FB9
:1030B000BFF34F8FFEE74FF0500383F31188BFF348
:1030C0006F8FBFF34F8F019B002BFCD002B0704776
:1030D0000C00002006480068006880F3088862B68B
:1030E00061B6BFF34F8FBFF36F8F00DF00BF0000EB
:1030F00008ED00E04FF0807340F8043C21F001013E
:1031000040F8081C034B40F80C3C40F8202C403899
:10311000704700BF9530000800000000000000006C
:10312000074B19680868B0E8F00F80F30988BFF30F
:103130006F8F4FF0000080F311884EF00D0E704736
:10314000980000204FF0500383F31188BFF36F8F76
:10315000BFF34F8F0A4A136801331360012B00D06D
:103160007047084B1B6813F0FF0FF9D04FF0500366
:1031700083F31188BFF36F8FBFF34F8FFEE700BF5C
:103180000C00002004ED00E0094B1B6843B94FF030
:10319000500383F31188BFF36F8FBFF34F8FFEE7A8
:1031A000013B034A13600BB983F31188704700BFDA
:1031B0000C000020000000000000000000000000E3
:1031C000EFF30980BFF36F8F0D4B1A6820E9F00F02
:1031D00010602DE908404FF0500080F31188FFF790
:1031E000CDF94FF0000080F31188BDE80840196860
:1031F0000868B0E8F00F80F30988BFF36F8F70475D
:103200009800002008B54FF0500383F31188BFF3F6
:103210006F8FBFF34F8FFFF783F818B1034B4FF059
:1032200080521A60002383F3118808BD04ED00E08A
:10323000084A0023136008490B60084B1B680849C3
:10324000A1FB03139B09013B06490B600723136095
:10325000704700BF10E000E018E000E00800002028
:10326000D34D621014E000E010B582B0274B1A78FD
:10327000D2B20192FF221A701B78DBB28DF80330B4
:103280009DF8033003F05003214A1370214B0722AD
:103290001A609DF8033013F0800F0AD01D4A13689E
:1032A000013B13609DF803305B00DBB28DF8033007
:1032B000EFE7184B1B68032B08D04FF0500383F344
:1032C0001188BFF36F8FBFF34F8FFEE71B0203F42C
:1032D000E063104A1360019BDBB20C4A13700E4B83
:1032E0001A6842F470021A601A6842F070421A605A
:1032F000FFF79EFF0024094B1C60FFF7EBFEFFF772
:103300003DF9FFF7C7FE204602B010BD00E400E023
:10331000941900209819002020ED00E00C000020F6
:10332000EFF305830F2B0FD9104A9B5CDBB2104AD9
:1033300012789A4208D94FF0500383F31188BFF3F3
:103340006F8FBFF34F8FFEE70A4B1B6803F4E063F8
:10335000094A1268934208D94FF0500383F3118849
:10336000BFF36F8FBFF34F8FFEE77047F0E300E0CE
:10337000941900200CED00E0981900200C480D492C
:103380000D4A002302E0D458C4500433C4188C42C0
:10339000F9D30A4A0A4C002301E013600432A24226
:1033A000FBD3FEF731F900F00FF8FCF72FFF704761
:1033B0000000002074000020AC44000874000020CD
:1033C000FC1A0020FEE7000070B500260C4D0D4CE5
:1033D000641BA410A64209D100F0C6FF00260A4DC6
:1033E0000A4C641BA410A64205D170BD55F8043BDD
:1033F00098470136EEE755F8043B98470136F2E767
:10340000A4440008A4440008A4440008A8440008F8
:103410000A44914200F1FF3300D1704710B511F812
:10342000014B914203F8014FF9D110BD034602440C
:10343000934200D1704703F8011BF9E70FB40A4B20
:1034400013B51C6824B1A36913B9204600F066F8CF
:1034500005AB2046049AA168019300F081F902B0FF
:10346000BDE8104004B0704710000020002310B5E4
:103470000446C0E90033C0E90433836081814366B8
:10348000C2818361194608225C30FFF7CFFF054BEC
:1034900024626362044BA362044BE362044B236324
:1034A00010BD00BF0D3D00082F3D0008673D00081E
:1034B0008B3D0008014900F0AFB800BF654000082F
:1034C00070B568254A1E55430E4605F1740100F09B
:1034D000C5F8044640B10021C0E900160C30A060D8
:1034E00005F16802FFF7A2FF204670BD014800F019
:1034F000B3B800BFF41A0020014800F0AEB800BF16
:10350000F41A0020014800F0A7B800BFEF1A00200D
:10351000014800F0A2B800BFEF1A002010B5044621
:10352000FFF7F0FFA3691BB1BDE81040FFF7F0BF44
:10353000C4E912332365134B134A1B68A262A342EA
:1035400008BF0123204608BFA36100F01FF8606098
:10355000204600F01BF8A060204600F017F800227B
:103560000421E0606068FFF781FF01220921A06863
:10357000FFF77CFF02221221E068FFF777FF0123AB
:10358000A361D1E70C440008B5340008F8B507463C
:10359000FFF7ACFF1E4B1E68B36913B93046FFF747
:1035A000BDFF4836D6E90134013B03D533680BB380
:1035B0003668F7E7B4F90C50D5B9164B04F158004A
:1035C000E360656600F047F8FFF796FF082229469A
:1035D000C4E90155C4E904552560A56104F15C0006
:1035E000FFF724FFC4E90D55C4E912552046F8BD84
:1035F0006834D9E704213846FFF762FF044630609B
:103600000028D5D1FFF778FF0C233B60EEE700BF21
:103610000C4400080100FFFF2DE9F84306468846E8
:10362000002700F14804D4E90195B9F1010905D555
:103630002468002CF7D13846BDE8F883AB89012B0C
:1036400007D9B5F90E30013303D029463046C047BB
:1036500007436835E9E7704770477047F8B5CD1CF8
:1036600025F0030508350C2D38BF0C25002D064626
:1036700001DBA94203D90C2333600020F8BD00F020
:10368000B1FD21490A6814469CB9204F3B6823B913
:103690002146304600F02AFB38602946304600F0CB
:1036A00025FB431C23D10C233046336000F0A0FDE2
:1036B000E3E723685B1B17D40B2B03D923601C445F
:1036C000256004E06368A2420CBF0B605360304683
:1036D00000F08EFD04F10B00231D20F00700C21A3C
:1036E000CCD01B1AA350C9E722466468CCE7C41C9F
:1036F00024F00304A042E3D0211A304600F0F6FA89
:103700000130DDD1CFE700BF9C190020A0190020B7
:10371000936810B4013B002B936007DA9469A342CD
:1037200001DB0A2902D110BC00F034BB1368581C1D
:1037300010601970084610BC7047F8B506460F4671
:103740001446D518AC4201D1002007E03A46304675
:1037500014F8011BFFF7DCFF431CF3D1F8BD000098
:103760002DE9F04F0D461446984606469DB018B117
:1037700083690BB9FFF7D2FE894B9D421BD1756857
:103780006B6ED90705D4AB899A0502D4A86DFFF7F3
:1037900063FFAB891B0701D52B69EBB9294630467E
:1037A00000F05CFBC0B16B6EDC070ED54FF0FF3054
:1037B0001DB0BDE8F08F7B4B9D4201D1B568DFE7BE
:1037C000794B9D4208BFF568DAE7AB899805EDD4DF
:1037D000A86DFFF742FFE9E70023099320238DF846
:1037E000293030234FF00109CDF80C80DFF8BC817F
:1037F0008DF82A3023469A4613F8012B0AB1252A60
:10380000F9D1BAEB040B0BD05B4622462946304671
:10381000FFF793FF013000F0AA80099A5A440992F9
:103820009AF80030002B00F0A28000234FF0FF3206
:10383000CDE905230AF1010A049307938DF853306B
:103840001A935446052214F8011B584800F0BCFC9A
:10385000049AD8B9D10644BF20238DF853301307FA
:1038600044BF2B238DF853309AF800302A2B15D003
:10387000544600204FF00A0C079A214611F8013BEC
:10388000303B092B4ED9B0B1079214E0A0EB0803EE
:1038900009FA03F31343A2460493D2E7039B191DCD
:1038A0001B680391002BBBBF5B4242F002020793EF
:1038B0000793B8BF049223782E2B0CD163782A2B60
:1038C00035D1039B02341A1D1B680392002BB8BF2D
:1038D0004FF0FF330593DFF8E4A003225046217830
:1038E00000F072FC40B14023A0EB0A0003FA00F0A4
:1038F000049B01340343049314F8011B06222C4853
:103900008DF8281000F060FC00283FD0294B1BBB2D
:10391000039B073323F0070308330393099B3B44BE
:10392000099367E70C4601200CFB0232A5E7002350
:103930004FF00A0C194601340593204610F8012B6C
:10394000303A092A03D9002BC5D00591C3E70446B4
:1039500001230CFB0121F0E703AB00932A4630461C
:10396000154B04A9AFF300800746781CD6D16B6EC7
:10397000D90705D4AB899A0502D4A86DFFF76DFE6F
:10398000AB895B063FF512AF099811E703AB0093D3
:103990002A463046084B04A900F082F8E4E700BF4D
:1039A00030440008504400081044000870440008E7
:1039B0007A440008000000003B3700087644000805
:1039C0002DE9F047164699468A680B6907469342E7
:1039D000B8BF1346336091F843200C46DDF82080D1
:1039E0000AB1013333602368990642BF336802335A
:1039F0003360256815F0060506D104F1190AE3685D
:103A000032689B1AAB4228DC94F84320131E2268CC
:103A100018BF012392062DD44946384604F14302CB
:103A2000C047013020D02368E56803F00603042B6B
:103A300018BF002532684FF00006A36808BFAD1A12
:103A4000226908BF25EAE5759342C4BF9B1AED18A9
:103A50001A34B5421AD1002008E0012352464946E3
:103A60003846C047013003D14FF0FF30BDE8F08742
:103A70000135C4E73020E11881F843005A1C94F85E
:103A800045102244023382F84310C5E70123224641
:103A900049463846C0470130E6D00136D9E7000034
:103AA0002DE9FF470C46277E9146782F80469A469F
:103AB0000C9904F1430207D8622F0AD8002F00F0B6
:103AC000D980582F00F0A48004F1420684F8427097
:103AD0003AE0A7F16303152BF6D801A050F823F0C4
:103AE000393B00084D3B0008C93A0008C93A0008B4
:103AF000C93A0008C93A00084D3B0008C93A000815
:103B0000C93A0008C93A0008C93A00085B3C0008F5
:103B10007D3B00083D3C0008C93A0008C93A00084E
:103B20007D3C0008C93A00087D3B0008C93A0008FE
:103B3000C93A0008453C00080B6804F142061A1D0A
:103B40001B680A6084F842300123A4E025680868F5
:103B50002E0600F104030AD505680B60002D03DA78
:103B60002D236D4284F843300A235E4819E015F096
:103B7000400F05680B6018BF2DB2EFE70B68256892
:103B8000181D0860280601D51D6802E06906FBD5EE
:103B90001D886F2F0CBF08230A235248002184F888
:103BA00043106668002EA8BF2168A660A4BF21F05C
:103BB000040121600DB9002E4DD01646B5FBF3F17E
:103BC00003FB1157C75D06F8017D2F46BB420D462A
:103BD000F4D9082B0BD12368DF0708D52369616866
:103BE0009942DEBF302306F8013C06F1FF36921BF6
:103BF00022614B4621464046CDF800A003AAFFF7BC
:103C0000DFFE01304CD14FF0FF3004B0BDE8F0874B
:103C1000344884F845700E68236856F8045B1F0624
:103C20000E6014D5D90744BF43F0200323601DB9AB
:103C3000236823F0200323601023AFE7236843F0B9
:103C4000200323607823284884F84530E3E75E06A4
:103C500048BFADB2E6E71646BBE70B6826681D1DF8
:103C600060690D6035061B6801D5186002E07106B9
:103C7000FBD51880002316462361BAE70B681A1D8E
:103C80000A601E6800213046626800F09DFA08B1A3
:103C9000801B606063682361002384F84330A8E7D9
:103CA0003246494640462369D0470130ABD02368AD
:103CB0009B0713D4E068039B9842B8BF1846A4E75B
:103CC0000123324649464046D04701309BD001355A
:103CD000E36803995B1AAB42F2DCEBE7002504F1E1
:103CE0001906F5E7814400089244000838B500231E
:103CF000054D044608462B6000F028FB431C02D10A
:103D00002B6803B1236038BDF81A002010B50C46AB
:103D1000B1F90E1000F0BEFA0028ABBF636DA389A5
:103D20001B1823F48053ACBF6365A38110BD2DE93C
:103D3000F0411F468B890546DB050C46164605D526
:103D400002230022B1F90E1000F0C8F9A38932460F
:103D500023F48053A38128463B46B4F90E10BDE8F6
:103D6000F04100F069B810B50C46B1F90E1000F042
:103D7000B5F9431CA38915BF606523F4805343F450
:103D80008053A38118BFA38110BDB1F90E1000F0BC
:103D9000D3B80000F8B50E461446054618B183693D
:103DA0000BB9FFF7BBFB214B9C422BD16C68A3697D
:103DB000A360A3891A072FD523696BB323692068F1
:103DC000F6B2C01A63693746834204DC21462846AE
:103DD00000F048F930BBA3680130013BA3602368C1
:103DE0005A1C22601E706369834204D0A389DB07DA
:103DF00006D50A2E04D12146284600F033F988B9A9
:103E00003846F8BD0A4B9C4201D1AC68CFE7094B5C
:103E10009C4208BFEC68CAE72146284600F01EF81D
:103E20000028CBD04FF0FF37EAE700BF304400084E
:103E3000504400081044000838B5044608461146AE
:103E40000022054D2A601A46FCF792FB431C02D162
:103E50002B6803B1236038BDF81A0020324B70B5CF
:103E60001D6806460C4625B1AB6913B92846FFF715
:103E700055FB2E4B9C420FD16C68A389B4F90C20E2
:103E800019072CD4DD0611D40923336042F0400316
:103E90004FF0FF30A3813EE0254B9C4201D1AC683E
:103EA000EBE7244B9C4208BFEC68E6E7580712D5C5
:103EB000616B41B104F14403994202D0304600F0F5
:103EC0009DF900236363A38923F02403A3810023C6
:103ED000636023692360A38943F00803A3812369F6
:103EE0004BB9A38903F42073B3F5007F03D02146B7
:103EF000304600F029F9A089B4F90C2010F0010334
:103F00000AD00023A36063695B42A361236943B9BC
:103F100010F08000BAD170BD810758BF6369A360FB
:103F2000F4E70020F7E700BF10000020304400084D
:103F3000504400081044000838B50023054D0446DD
:103F400008462B6000F0DAF9431C02D12B6803B15C
:103F5000236038BDF81A00208A892DE9F041054612
:103F600010070C4658D44B68002B05DC0B6C002B5B
:103F700002DC0020BDE8F081E66A002EF9D00023C3
:103F800012F480522F682B6032D0606DA3895A07DB
:103F900005D56368C01A636B0BB1236CC01A00238C
:103FA0000246E66A2846216AB047431CA38906D127
:103FB00029681D292CD82A4ACA40D60728D50022AC
:103FC00062602269D904226004D5421C01D12B68A9
:103FD00003B96065616B2F600029CAD004F1440306
:103FE000994202D0284600F009F900206063C1E739
:103FF000216A01232846B047411CC7D12B68002BFA
:10400000C4D01D2B01D0162B01D12F60B1E7A3899D
:1040100043F04003A381ADE70F69002FA9D09307B8
:1040200018BF00230E6808BF4B69A6EB07080F6096
:104030008B60B8F1000F9CDD43463A462846216A62
:10404000A66AB047002806DCA3894FF0FF3043F092
:104050004003A3818EE70744A8EB0008E9E700BF0F
:104060000100402038B50B6905460C4613B9002500
:10407000284638BD18B183690BB9FFF74FFA144BC6
:104080009C421BD16C68B4F90C30002BEFD0626EEF
:10409000D00704D4990502D4A06DFFF7DDFA2846B5
:1040A0002146FFF759FF636E0546DA07E0D4A3897E
:1040B0009B05DDD4A06DFFF7D0FAD9E7054B9C42F4
:1040C00001D1AC68DFE7044B9C4208BFEC68DAE73B
:1040D00030440008504400081044000838B5044635
:1040E000084611460022054D2A601A4600F01EF9C6
:1040F000431C02D12B6803B1236038BDF81A00209D
:1041000070B50E46B1F90E10144600291D4696B042
:1041100007DA00232B60B3891A0610D44FF48063AA
:104120000EE06A4600F0C8F80028F2DB019A02F4BB
:104130007042A2F500535A425A412A60EEE74023EA
:104140000020236016B070BD8B8973B59D070646AD
:104150000C4607D504F14703236023610123636103
:1041600002B070BD6A4601ABFFF7CAFF0099054671
:104170003046FFF773FA48B9B4F90C309A05EFD41A
:1041800023F0030343F00203A381E3E70D4BB36283
:10419000A389206043F08003A381009B20616361B9
:1041A000019B5BB13046B4F90E1000F097F828B1CE
:1041B000A38923F0030343F00103A381A0890543EE
:1041C000A581CDE7B5340008034610B5C9B2024455
:1041D0009342184601D1002003E0047801338C4259
:1041E000F6D110BD0148FFF737BA00BFF01A002022
:1041F0000148FFF732BA00BFF01A002038B5054673
:10420000002943D051F8043C0C1F002BB8BFE41820
:10421000FFF7E8FF1E4A1368104633B96360146065
:104220002846BDE83840FFF7E3BFA3420AD921681A
:104230006218934201BF1A685B685218226063607B
:104240000460EDE71A465B680BB1A342FAD9116826
:104250005018A0420BD120680144501883421160CD
:10426000DED118685B68014411605360D8E702D959
:104270000C232B60D4E7206821188B4201BF1968FA
:104280005B680918216063605460C9E738BD00BFEE
:104290009C19002038B50446084611460022054DF9
:1042A0002A601A4600F04AF8431C02D12B6803B179
:1042B000236038BDF81A002038B50023064D0446A7
:1042C000084611462B6000F021F8431C02D12B68F0
:1042D00003B1236038BD00BFF81A002038B50023B1
:1042E000054D044608462B6000F018F8431C02D127
:1042F0002B6803B1236038BDF81A00205822024B06
:104300004FF0FF301A607047F81A00205822024B15
:104310004FF0FF301A607047F81A00205822024B05
:1043200000201A60704700BFF81A00205822024B84
:104330004FF0FF301A607047F81A00205822024BE5
:104340004FF0FF301A607047F81A0020044A054900
:104350001368002B08BF0B461844106018467047BE
:10436000A4190020001B0020F8B500BFF8BC08BC51
:104370009E467047F8B500BFF8BC08BC9E46704723
:10438000627574746F6E20707265737320646F77DA
:104390006E2E2025640D0A00020304050607080995
:1043A0000A0B0C0D0E0F10100000000000000000A2
:1043B00000000000010203040607080900000000D5
:1043C0000102030464656661756C745461736B006B
:1043D000C4430008000000000000000000000000CE
:1043E00000000000000200001800000000000000B3
:1043F0000000000049444C4500000000546D72511B
:1044000000000000546D72205376630014000020F9
:10441000000000000000000000000000000000009C
:10442000000000000000000000000000000000008C
:10443000000000000000000000000000000000007C
:10444000000000000000000000000000000000006C
:10445000000000000000000000000000000000005C
:10446000000000000000000000000000000000004C
:10447000232D302B2000686C4C006566674546474D
:1044800000303132333435363738394142434445D0
:10449000460030313233343536373839616263643F
:0444A000656600004D
:0444A40035010008D6
:0444A80011010008F6
:1044AC0001000000100000000024F400AAAAAAAA2F
:1044BC0014000020000000003044000850440008A4
:1044CC001044000800000000000000000000000084
:1044DC0000000000000000000000000000000000D0
:1044EC0000000000000000000000000000000000C0
:1044FC0000000000000000000000000000000000B0
:10450C00000000000000000000000000000000009F
:04451C00000000009B
:040000050800337D3F
:00000001FF
