:020000040800F2
:100000000050002091110008210600082306000876
:100010002506000827060008290600080000000041
:100020000000000000000000000000002B06000897
:100030002D060008000000002F0600083106000809
:10004000D9110008D9110008D9110008D9110008E8
:10005000D9110008D9110008D9110008D9110008D8
:10006000D9110008D9110008D9110008D9110008C8
:10007000D9110008D9110008D9110008D9110008B8
:10008000D9110008D9110008D9110008D9110008A8
:10009000D9110008D9110008D9110008D911000898
:1000A000D9110008D9110008D9110008D911000888
:1000B000D9110008D9110008D9110008D911000878
:1000C000D9110008D9110008D9110008D911000868
:1000D000D9110008D9110008D9110008D911000858
:1000E000D9110008D9110008D9110008000000003A
:1000F0000000000000000000000000000000000000
:0C01000000000000000000005FF808F1A3
:10010C0010B5054C237833B9044B13B10448AFF345
:10011C0000800123237010BD70000020000000003F
:10012C00241C000808B5034B1BB103490348AFF36B
:10013C00008008BD0000000074000020241C000892
:10014C0008B54FF40051034800F0B5FF024801F028
:10015C00D9F808BD001001403C1C000808B501216D
:10016C00014800F09BFF08BD0008014072B6FEE795
:10017C0000B591B0002309930B930C930193029358
:10018C00039304930593012106914FF48032079257
:10019C0008930A9102230D930E924FF4E0130F93E0
:1001AC0006A800F051FB80B90F23019302210291A4
:1001BC00002303934FF480620492059301A800F08E
:1001CC0081FD20B911B05DF804FBFFF7CFFFFFF7FD
:1001DC00CDFF000008B500F0E9FAFFF7C9FF00F009
:1001EC001DF800F0C1F90A4C01220A49204600F022
:1001FC0061F8094A0021204600F073F8204600F00F
:10020C007BF9052000F0F6FA00F088F9F9E700BF59
:10021C009C000020690100084D010008F0B589B070
:10022C00002404940594069407941F4B9A6942F099
:10023C0010029A619A6902F010020192019A9A696D
:10024C0042F020029A619A6902F020020292029A0C
:10025C009A6942F004029A619B6903F004030393C8
:10026C00039B124F22464FF40051384600F01DFFFD
:10027C000F4E22460121304600F017FF4FF4005379
:10028C000493012505950695079504A9384600F0B9
:10029C00F5FD0495059402230693079504A93046B1
:1002AC0000F0ECFD09B0F0BD001002400010014060
:1002BC000008014070B504460D4616462822002160
:1002CC0000F0AAFF4FF00003082262F30713A3709B
:1002DC006560A847E37860F3C71366F38613E37091
:1002EC0070BD023140F82120704710B504464368B8
:1002FC009847E37813F0070F02D02388013323804B
:10030C00E378B0EBD31F11D01A46C3F3C203013309
:10031C0003F0070363F3C502E270022B0AD9D3B2D0
:10032C0060F3C7136FF3C503E37003E0E3786FF377
:10033C00C503E370E37803F00703052B0FD8DFE860
:10034C0003F003234C920EBAE378C3F38012B2EBA2
:10035C00D31F05D0A378082262F30713A37010BD36
:10036C00A3786FF30713A370A3680BB120469847CB
:10037C0000232380A378012262F30303A370E378A4
:10038C0062F30203E370EAE7E378C3F38012B2EBA3
:10039C00D31F10D0A378012262F30713A370E36874
:1003AC000BB12046984700232380E378022262F3A6
:1003BC000203E370D3E72388C82BD0D9A378052296
:1003CC0062F30713A370E3690BB120469847E378F7
:1003DC00052262F30203E370C1E7E378C3F38012F2
:1003EC00B2EBD31F0ED023883C2BB8D9A37803F0E3
:1003FC000F03012B21D0022B2AD0E3786FF30203D9
:10040C00E370ACE7A3786FF30713A370A3680BB189
:10041C0020469847A37803F00F02013262F30303DE
:10042C00A37023690BB12046984700232380E378FF
:10043C00032262F30203E37091E7A378032262F3D1
:10044C000713A3706369002BD7D020469847D4E7D5
:10045C00A378042262F30713A370A369002BCCD0FA
:10046C0020469847C9E7E378C3F38012B2EBD31F59
:10047C0018D0A378012262F30713A370E3680BB1C1
:10048C002046984723883B2B07D800232380E3780A
:10049C00022262F30203E37061E7E3786FF3020375
:1004AC00E3705CE723883C2B7FF659AFE3786FF35E
:1004BC000203E37053E7E378C3F38012B2EBD31F6C
:1004CC000DD0A378012262F30713A370E3680BB17C
:1004DC0020469847E3786FF30203E3703FE7A37875
:1004EC00062262F30713A370236A002B3FF437AF85
:1004FC002046984733E70000074B1A68134633B180
:10050C00834201D05B6AFAE74FF0FF3070474262DA
:10051C00014B1860704700BF8C00002010B5044BD5
:10052C001C6824B12046FFF7E0FE646AF9E710BDB1
:10053C008C000020C2B2044B5A60034B1B6813F0B2
:10054C00400FFAD0704700BF0038014070B50C4620
:10055C0016460025B54205DA14F8010BFFF7EAFF41
:10056C000135F7E7304670BD08B50A480A4B036001
:10057C004FF4E133436000238360C36003610C22BA
:10058C0042618361C36100F0BBF800B908BDFFF79D
:10059C00EDFDFBE7C40000200038014010B586B02B
:1005AC00002302930393049305930268174B9A421A
:1005BC0001D006B010BD03F558439A6942F480424D
:1005CC009A619A6902F480420092009A9A6942F008
:1005DC0004029A619B6903F004030193019B4FF49D
:1005EC00007302930223039303230593084C02A97F
:1005FC00204600F043FC4FF48063029300230393E6
:10060C00049302A9204600F039FCD2E700380140DF
:10061C0000080140FEE7FEE7FEE7FEE7FEE7704755
:10062C007047704708B500F0D3F808BD82B00E4B88
:10063C009A6942F001029A619A6902F001020092F1
:10064C00009ADA6942F08052DA61DB6903F0805378
:10065C000193019B054A536823F0E06343F0007358
:10066C00536002B0704700BF001002400000014010
:10067C0010B504460268136923F44053C1680B4358
:10068C00136183680269134342691A430168CB689A
:10069C0023F4B05323F00C031343CB60026853696B
:1006AC0023F4407381690B4353610268124B9A42E5
:1006BC001FD000F0C3FB00EB800303EB83036268E5
:1006CC009200B3FBF2F20D48A0FB023149096423FE
:1006DC0003FB11231B013233A0FB03235B0903F043
:1006EC00F00202EB011203F00F03216813448B603C
:1006FC0010BD00F0B3FBDEE7003801401F85EB5165
:10070C0058B310B5044690F83D300BB3242384F84D
:10071C003D302268D36823F40053D3602046FFF7A2
:10072C00A7FF2268136923F490431361226853696D
:10073C0023F02A0353612268D36843F40053D36037
:10074C0000202064202384F83D3084F83E3010BD16
:10075C0080F83C30FFF722FFD8E7012070470000FB
:10076C0010B504460E4B18784FF47A73B3FBF0F3C4
:10077C000C4A1068B0FBF3F000F0ECFC68B90F2CDD
:10078C0001D901200AE0002221464FF0FF3000F091
:10079C00ADFC054B1C60002000E0012010BD00BF2B
:1007AC0000000020080000200400002008B5074AC3
:1007BC00136843F010031360032000F085FC0F2036
:1007CC00FFF7CEFFFFF732FF002008BD00200240EC
:1007DC00034A1168034B1B780B441360704700BF2E
:1007EC000801002000000020014B1868704700BF72
:1007FC000801002038B50446FFF7F6FF0546B4F1B2
:10080C00FF3F02D0044B1B781C44FFF7EDFF401B4D
:10081C00A042FAD338BD00BF0000002082B0084BC4
:10082C001B68084AA2FB03235B0A00FB03F301933A
:10083C0000BF019B5A1E0192002BF9D102B07047E8
:10084C0008000020D34D6210002800F0F18170B533
:10085C0082B00446036813F0010F2CD0AA4B5B68DE
:10086C0003F00C03042B1DD0A74B5B6803F00C03A7
:10087C00082B12D06368B3F5803F41D0002B55D1C3
:10088C0003F1804303F504331A6822F480321A60B2
:10089C001A6822F480221A6037E09B4B5B6813F4D1
:1008AC00803FE7D0984B1B6813F4003F03D063687C
:1008BC00002B00F0BF81236813F0020F75D0924B10
:1008CC005B6813F00C0F5FD08F4B5B6803F00C036D
:1008DC00082B54D02369002B00F089808B4B01220C
:1008EC001A60FFF781FF0546874B1B6813F0020F58
:1008FC0074D1FFF779FF401B0228F5D903209EE144
:10090C00814A136843F480331360636843B3FFF781
:10091C006BFF05467C4B1B6813F4003FCBD1FFF7F4
:10092C0063FF401B6428F5D9032088E1B3F5A02FA1
:10093C0009D0754B1A6822F480321A601A6822F4B6
:10094C0080221A60E1E703F18043A3F53C331A6877
:10095C0042F480221A601A6842F480321A60D4E79A
:10096C00FFF742FF0546684B1B6813F4003FA2D00B
:10097C00FFF73AFF401B6428F5D903205FE1624B77
:10098C005B6813F4803FA5D15F4B1B6813F0020F1B
:10099C0003D02369012B40F04F815B4A136823F08D
:1009AC00F803616943EAC1031360236813F0080F6D
:1009BC0032D0A369002B45D0554B01221A60FFF7AA
:1009CC0013FF0546504B5B6A13F0020F21D1FFF762
:1009DC000BFF401B0228F5D9032030E14A4A13686B
:1009EC0023F0F803616943EAC1031360DDE7474B69
:1009FC0000221A60FFF7F8FE0546434B1B6813F004
:100A0C00020FD2D0FFF7F0FE401B0228F5D90320CD
:100A1C0015E10120FFF702FF236813F0040F00F02B
:100A2C009780394BDB6913F0805F1DD1364BDA6947
:100A3C0042F08052DA61DB6903F080530193019B31
:100A4C00012512E0324B00221A60FFF7CDFE05465D
:100A5C002D4B5B6A13F0020FDED0FFF7C5FE401B77
:100A6C000228F5D90320EAE000252A4B1B6813F471
:100A7C00807F11D0E368012B22D0002B38D103F1F9
:100A8C00804303F504331A6A22F001021A621A6ACF
:100A9C0022F004021A6218E01E4A136843F48073B1
:100AAC001360FFF7A1FE06461A4B1B6813F4807FF8
:100ABC00E0D1FFF799FE801B6428F5D90320BEE036
:100ACC00114A136A43F001031362E36873B3FFF72F
:100ADC008BFE06460C4B1B6A13F0020F37D1FFF747
:100AEC0083FE801B41F288339842F3D90320A6E0A1
:100AFC00052B11D0044B1A6A22F001021A621A6AF1
:100B0C0022F004021A62E0E70010024000004242A8
:100B1C0080044242007000404D4B1A6A42F00402BD
:100B2C001A621A6A42F001021A62CEE7FFF75CFE03
:100B3C000646474B1B6A13F0020F08D0FFF754FE12
:100B4C00801B41F288339842F3D9032077E0E5B952
:100B5C00E369002B72D03E4A526802F00C02082A5C
:100B6C0056D0022B17D03B4B00221A60FFF73CFEED
:100B7C000446374B1B6813F0007F47D0FFF734FE59
:100B8C00001B0228F5D9032059E0314AD36923F020
:100B9C008053D361DCE72F4B00221A60FFF724FE51
:100BAC0005462B4B1B6813F0007F06D0FFF71CFE8D
:100BBC00401B0228F5D9032041E0236AB3F5803F9E
:100BCC001AD023494B6823F47413226A606A0243D7
:100BDC0013434B601F4B01221A60FFF705FE0446BE
:100BEC001B4B1B6813F0007F0ED1FFF7FDFD001BA4
:100BFC000228F5D9032022E0154A536823F4003368
:100C0C00A1680B435360DCE7002018E0002016E0DD
:100C1C00012B16D00E4B5B6803F48031226A914293
:100C2C0011D103F47013626A93420ED1002006E0D6
:100C3C0001207047012002E0012000E0002002B0FA
:100C4C0070BD0120FBE70120F9E70120F7E700BFA9
:100C5C00001002406000424286B0164B0FCB0DF1E3
:100C6C00180C0CE90F0040F20123ADF80430124BC4
:100C7C005B6803F00C02082A02D0104806B07047DB
:100C8C00C3F38342624412F8102C13F4803F0CD04F
:100C9C00094B5B68C3F34043634413F8143C0748A7
:100CAC0000FB02F0B0FBF3F0E8E7054800FB02F0B4
:100CBC00E4E700BF541C00080010024000127A0048
:100CCC0000093D00002800F0A08070B50D460446D8
:100CDC00524B1B6803F007038B420BD24F4A13682D
:100CEC0023F007030B431360136803F007038B42D5
:100CFC0040F08D80236813F0020F17D013F0040F0F
:100D0C0004D0474A536843F4E0635360236813F0FC
:100D1C00080F04D0424A536843F460535360404A6E
:100D2C00536823F0F003A1680B435360236813F05E
:100D3C00010F31D06368012B20D0022B25D0384A0B
:100D4C00126812F0020F64D035494A6822F003028F
:100D5C0013434B60FFF748FD0646314B5B6803F0CD
:100D6C000C036268B3EB820F16D0FFF73DFD801BBE
:100D7C0041F288339842F0D9032045E0284A1268A2
:100D8C0012F4003FE0D101203EE0254A126812F037
:100D9C00007FD9D1012037E0204B1B6803F00703FB
:100DAC00AB420AD91D4A136823F007032B43136087
:100DBC00136803F00703AB422DD1236813F0040F23
:100DCC0006D0174A536823F4E063E1680B43536081
:100DDC00236813F0080F07D0114A536823F46053AB
:100DEC00216943EAC1035360FFF736FF0C4B5B6884
:100DFC00C3F303130B4AD35CD8400B4B18600B4B5B
:100E0C001868FFF7ADFC002070BD01207047012071
:100E1C00FAE70120F8E70120F6E700BF00200240C6
:100E2C0000100240681C000808000020040000208C
:100E3C00014B1868704700BF0800002008B5FFF789
:100E4C00F7FF044B5B68C3F30223034AD35CD8401F
:100E5C0008BD00BF00100240781C000808B5FFF761
:100E6C00E7FF044B5B68C3F3C223034AD35CD8404F
:100E7C0008BD00BF00100240781C0008F0B482B01E
:100E8C0000252C46A3E07F4FBB4210D007D97E4FE4
:100E9C00BB420CD007F58037BB4208D013E0A7F556
:100EAC008017BB4203D007F57027BB4207D18B6874
:100EBC00002B58D0012B51D04261082503E0A7F537
:100ECC008017BB42F3D0FF2E4FD88446FF2E4FD84D
:100EDC00A200DCF800300F27974023EA070305FA3D
:100EEC0002F21343CCF800304B6813F0805F6DD0E6
:100EFC00664B9A6942F001029A619B6903F0010307
:100F0C000193019BA208971C614B53F8273004F006
:100F1C000307BF004FF00F0C0CFA07FC23EA0C0C74
:100F2C005C4B98422AD003F58063984200F08A808B
:100F3C0003F58063984200F0878003F58063984244
:100F4C001AD004231BE0CD68BDE7CD680435BAE7A1
:100F5C00CD680835B7E7CD680C35B4E702610825D4
:100F6C00B1E70025AFE70425ADE700F1040CADE7D0
:100F7C00A4F108029200ACE7032300E00023BB407D
:100F8C0043EA0C030232424F47F822304B6813F409
:100F9C00803F5BD0404A1368334313604B6813F4B3
:100FAC00003F59D03C4A5368334353604B6813F4A9
:100FBC00801F57D0384A9368334393604B6813F4BF
:100FCC00001F55D0344AD3681E43D66001340B68D9
:100FDC0033FA04F252D00122A24003EA020632EAAA
:100FEC000303F3D14B68122B3FF64DAF122B3FF698
:100FFC006AAF01A757F823F0BB0E0008530F000887
:10100C005D0F00086F0F0008D30E0008D30E000808
:10101C00D30E0008D30E0008D30E0008D30E000820
:10102C00D30E0008D30E0008D30E0008D30E000810
:10103C00D30E0008D30E0008D30E0008570F00087B
:10104C00630F000801239AE7022398E7124A1368FA
:10105C0023EA06031360A1E70F4A536823EA060349
:10106C005360A3E70C4A936823EA06039360A5E751
:10107C00094AD36823EA0606D660A7E702B0F0BC9B
:10108C00704700BF00002210000031100010024019
:10109C00000001400008014000040140836819422F
:1010AC0001D001207047002070470AB101617047E0
:1010BC00090401617047C36801EA030221EA0301D4
:1010CC0041EA024101617047074AD36823F4E063A7
:1010DC001B041B0C000200F4E060034343F0BF63ED
:1010EC0043F40033D360704700ED00E030B4174B8D
:1010FC00DB68C3F30223C3F10704042C28BF0424C8
:10110C001D1D062D18D9033B4FF0FF3505FA04F4CD
:10111C0021EA0401994005FA03F322EA0303194377
:10112C0000280BDB0901C9B200F1604000F56140F9
:10113C0080F8001330BC70470023E5E700F00F0087
:10114C000901C9B2024B1954F4E700BF00ED00E0ED
:10115C0014ED00E00138B0F1807F0AD2064B5860E4
:10116C00064AF02182F823100020986007221A60AA
:10117C0070470120704700BF10E000E000ED00E078
:10118C00704700000C480D490D4A002302E0D4586A
:10119C00C4500433C4188C42F9D30A4A0A4C0023B5
:1011AC0001E013600432A242FBD3FFF7E9FF00F029
:1011BC000FF8FFF70FF870470000002070000020B8
:1011CC00EC1C0008700000201C010020FEE7000051
:1011DC0070B500260C4D0D4C641BA410A64209D111
:1011EC0000F01AFD00260A4D0A4C641BA410A642FE
:1011FC0005D170BD55F8043B98470136EEE755F81C
:10120C00043B98470136F2E7E41C0008E41C000894
:10121C00E41C0008E81C000803460244934200D179
:10122C00704703F8011BF9E770B50E46054618B177
:10123C0083690BB900F048FAAB69AC6813B928465E
:10124C0000F042FA2C4B9C4220D16C68636EDB0799
:10125C0005D4A389980502D4A06D00F0D3FAA38914
:10126C0019071DD52369DBB1013EA36816F8011FD0
:10127C00013BA36039BB002B38DA22460A212846F1
:10128C0000F048F8013011D00A2511E01B4B9C42AC
:10129C0001D1AC68DAE71A4B9C4208BFEC68D5E781
:1012AC002146284600F088F80028DDD04FF0FF35A5
:1012BC00636EDA0705D4A3899B0502D4A06D00F0F8
:1012CC00A2FA284670BD002B04DAA2699A4206DC09
:1012DC000A2904D023685A1C22601970C5E72246DB
:1012EC00284600F017F80130BFD1DFE70A25236844
:1012FC005A1C22601D70DBE7A41C0008C41C0008EB
:10130C00841C0008024B01461868FFF78DBF00BF14
:10131C000C000020F8B50E461446054618B183693A
:10132C000BB900F0D1F9214B9C422BD16C68A3690D
:10133C00A360A3891A072FD523696BB3236920688F
:10134C00F6B2C01A63693746834204DC214628464C
:10135C0000F026F930BBA3680130013BA360236881
:10136C005A1C22601E706369834204D0A389DB0778
:10137C0006D50A2E04D12146284600F011F988B969
:10138C003846F8BD0A4B9C4201D1AC68CFE7094BFB
:10139C009C4208BFEC68CAE72146284600F00CF8CE
:1013AC000028CBD04FF0FF37EAE700BFA41C0008A1
:1013BC00C41C0008841C0008324B70B51D6806461E
:1013CC000C4625B1AB6913B9284600F07DF92E4BBC
:1013DC009C420FD16C68A389B4F90C2019072CD44A
:1013EC00DD0611D40923336042F040034FF0FF3087
:1013FC00A3813EE0254B9C4201D1AC68EBE7244B2A
:10140C009C4208BFEC68E6E7580712D5616B41B106
:10141C0004F14403994202D0304600F059FA0023FB
:10142C006363A38923F02403A381002363602369EE
:10143C002360A38943F00803A38123694BB9A389D3
:10144C0003F42073B3F5007F03D02146304600F03F
:10145C00FFF9A089B4F90C2010F001030AD0002385
:10146C00A36063695B42A361236943B910F08000F8
:10147C00BAD170BD810758BF6369A360F4E700203F
:10148C00F7E700BF0C000020A41C0008C41C0008D7
:10149C00841C00088A892DE9F041054610070C468A
:1014AC0058D44B68002B05DC0B6C002B02DC0020A5
:1014BC00BDE8F081E66A002EF9D0002312F48052C8
:1014CC002F682B6032D0606DA3895A0705D56368ED
:1014DC00C01A636B0BB1236CC01A00230246E66A78
:1014EC002846216AB047431CA38906D129681D29C7
:1014FC002CD82A4ACA40D60728D500226260226915
:10150C00D904226004D5421C01D12B6803B9606553
:10151C00616B2F600029CAD004F14403994202D0B8
:10152C00284600F0D5F900206063C1E7216A012349
:10153C002846B047411CC7D12B68002BC4D01D2BAB
:10154C0001D0162B01D12F60B1E7A38943F04003E2
:10155C00A381ADE70F69002FA9D0930718BF002313
:10156C000E6808BF4B69A6EB07080F608B60B8F1DB
:10157C00000F9CDD43463A462846216AA66AB047CE
:10158C00002806DCA3894FF0FF3043F04003A38111
:10159C008EE70744A8EB0008E9E700BF01004020F4
:1015AC0038B50B6905460C4613B90025284638BDDD
:1015BC0018B183690BB900F087F8144B9C421BD10E
:1015CC006C68B4F90C30002BEFD0626ED00704D4E9
:1015DC00990502D4A06D00F015F928462146FFF7B5
:1015EC0059FF636E0546DA07E0D4A3899B05DDD469
:1015FC00A06D00F008F9D9E7054B9C4201D1AC680D
:10160C00DFE7044B9C4208BFEC68DAE7A41C000837
:10161C00C41C0008841C0008002310B50446C0E953
:10162C000033C0E90433836081814366C2818361E6
:10163C00194608225C30FFF7EFFD054B246263620C
:10164C00044BA362044BE362044B236310BD00BF45
:10165C00491A00086B1A0008A31A0008C71A0008D8
:10166C00014900F0AFB800BFAD15000870B5682592
:10167C004A1E55430E4605F1740100F075F90446F7
:10168C0040B10021C0E900160C30A06005F16802E1
:10169C00FFF7C2FD204670BD014800F0B3B800BF93
:1016AC0014010020014800F0AEB800BF1401002066
:1016BC00014800F0A7B800BF0F010020014800F05E
:1016CC00A2B800BF0F01002010B50446FFF7F0FFD1
:1016DC00A3691BB1BDE81040FFF7F0BFC4E912339A
:1016EC002365134B134A1B68A262A34208BF012354
:1016FC00204608BFA36100F01FF86060204600F090
:10170C001BF8A060204600F017F800220421E060CE
:10171C006068FFF781FF01220921A068FFF77CFFB9
:10172C0002221221E068FFF777FF0123A361D1E7C2
:10173C00801C00086D160008F8B50746FFF7ACFFD3
:10174C001E4B1E68B36913B93046FFF7BDFF483610
:10175C00D6E90134013B03D533680BB33668F7E7A0
:10176C00B4F90C50D5B9164B04F15800E36065661A
:10177C0000F047F8FFF796FF08222946C4E9015507
:10178C00C4E904552560A56104F15C00FFF744FD34
:10179C00C4E90D55C4E912552046F8BD6834D9E7A3
:1017AC0004213846FFF762FF044630600028D5D18B
:1017BC00FFF778FF0C233B60EEE700BF801C0008AE
:1017CC000100FFFF2DE9F84306468846002700F18B
:1017DC004804D4E90195B9F1010905D52468002C18
:1017EC00F7D13846BDE8F883AB89012B07D9B5F999
:1017FC000E30013303D029463046C04707436835C5
:10180C00E9E770477047704770B50E46B1F90E1096
:10181C00144600291D4696B007DA00232B60B389C5
:10182C001A0610D44FF480630EE06A4600F06CF98F
:10183C000028F2DB019A02F47042A2F500535A42DE
:10184C005A412A60EEE740230020236016B070BD99
:10185C008B8973B59D0706460C4607D504F14703E3
:10186C00236023610123636102B070BD6A4601AB42
:10187C00FFF7CAFF00990546304600F075F848B9E5
:10188C00B4F90C309A05EFD423F0030343F00203B0
:10189C00A381E3E70D4BB362A389206043F080037F
:1018AC00A381009B20616361019B5BB13046B4F95D
:1018BC000E1000F03BF928B1A38923F0030343F089
:1018CC000103A381A0890543A581CDE76D1600080E
:1018DC0038B50546002943D051F8043C0C1F002BA9
:1018EC00B8BFE41800F044F91E4A1368104633B927
:1018FC00636014602846BDE8384000F03FB9A3424D
:10190C000AD921686218934201BF1A685B685218A1
:10191C00226063600460EDE71A465B680BB1A3427A
:10192C00FAD911685018A0420BD120680144501804
:10193C0083421160DED118685B680144116053600A
:10194C00D8E702D90C232B60D4E7206821188B42EE
:10195C0001BF19685B680918216063605460C9E7AE
:10196C0038BD00BF90000020F8B5CD1C25F0030554
:10197C0008350C2D38BF0C25002D064601DBA9427D
:10198C0003D90C2333600020F8BD00F0F1F8214995
:10199C000A6814469CB9204F3B6823B9214630464F
:1019AC0000F03CF838602946304600F037F8431C0C
:1019BC0023D10C233046336000F0E0F8E3E72368D2
:1019CC005B1B17D40B2B03D923601C44256004E04C
:1019DC006368A2420CBF0B605360304600F0CEF837
:1019EC0004F10B00231D20F00700C21ACCD01B1AE7
:1019FC00A350C9E722466468CCE7C41C24F0030456
:101A0C00A042E3D0211A304600F008F80130DDD1B5
:101A1C00CFE700BF900000209400002038B50023D1
:101A2C00054D044608462B6000F0E8F8431C02D133
:101A3C002B6803B1236038BD1801002010B50C468B
:101A4C00B1F90E1000F0A0F80028ABBF636DA389AC
:101A5C001B1823F48053ACBF6365A38110BD2DE923
:101A6C00F0411F468B890546DB050C46164605D50D
:101A7C0002230022B1F90E1000F068F8A389324657
:101A8C0023F48053A38128463B46B4F90E10BDE8DD
:101A9C00F04100F017B810B50C46B1F90E1000F07B
:101AAC0055F8431CA38915BF606523F4805343F498
:101ABC008053A38118BFA38110BDB1F90E1000F0A3
:101ACC0013B8000038B50446084611460022054DEF
:101ADC002A601A46FEF73AFD431C02D12B6803B16B
:101AEC00236038BD1801002038B50023054D04468D
:101AFC0008462B6000F05AF8431C02D12B6803B146
:101B0C00236038BD1801002038B50023064D04466B
:101B1C00084611462B6000F051F8431C02D12B688B
:101B2C0003B1236038BD00BF1801002038B5002375
:101B3C00054D044608462B6000F048F8431C02D1C2
:101B4C002B6803B1236038BD1801002038B504465A
:101B5C00084611460022054D2A601A4600F03EF850
:101B6C00431C02D12B6803B1236038BD180100203F
:101B7C000148FFF747BE00BF100100200148FFF7E6
:101B8C0042BE00BF1001002038B50446084611467D
:101B9C000022054D2A601A4600F028F8431C02D199
:101BAC002B6803B1236038BD180100205822024B6A
:101BBC004FF0FF301A607047180100205822024B7A
:101BCC004FF0FF301A607047180100205822024B6A
:101BDC0000201A60704700BF180100205822024BE9
:101BEC004FF0FF301A607047180100205822024B4A
:101BFC004FF0FF301A60704718010020044A054965
:101C0C001368002B08BF0B46184410601846704729
:101C1C009800002020010020F8B500BFF8BC08BCDB
:101C2C009E467047F8B500BFF8BC08BC9E4670478E
:101C3C00627574746F6E20707265737320646F7745
:101C4C006E2E200D00000000020304050607080993
:101C5C000A0B0C0D0E0F101000000000000000000D
:101C6C000000000001020304060708090000000040
:101C7C00010203041000002000000000000000001E
:101C8C000000000000000000000000000000000048
:101C9C000000000000000000000000000000000038
:101CAC000000000000000000000000000000000028
:101CBC000000000000000000000000000000000018
:101CCC000000000000000000000000000000000008
:081CDC00000000000000000000
:041CE40031010008C2
:041CE8000D010008E2
:101CEC0001000000100000000024F400100000208F
:101CFC0000000000A41C0008C41C0008841C000880
:101D0C0000000000000000000000000000000000C7
:101D1C0000000000000000000000000000000000B7
:101D2C0000000000000000000000000000000000A7
:101D3C000000000000000000000000000000000097
:101D4C000000000000000000000000000000000087
:04000005080011914D
:00000001FF
