:020000040800F2
:10000000005000200D100008690300086B03000871
:100010006D0300086F030008710300080000000072
:100020000000000000000000000000007303000852
:10003000750300080000000077030008790300083A
:1000400055100008551000085510000855100008FC
:1000500055100008551000085510000855100008EC
:1000600055100008551000085510000855100008DC
:1000700055100008551000085510000855100008CC
:1000800055100008551000085510000855100008BC
:1000900055100008551000085510000855100008AC
:1000A000551000085510000855100008551000089C
:1000B000551000085510000855100008551000088C
:1000C000551000085510000855100008551000087C
:1000D000551000085510000855100008551000086C
:1000E00055100008551000085510000800000000C9
:1000F0000000000000000000000000000000000000
:0C01000000000000000000005FF808F1A3
:10010C0010B5054C237833B9044B13B10448AFF345
:10011C0000800123237010BD70000020000000003F
:10012C00DC1F000808B5034B1BB103490348AFF3B0
:10013C00008008BD0000000074000020DC1F0008D7
:10014C0072B6FEE700B591B0002309930B930C93A4
:10015C0001930293039304930593012106914FF4A9
:10016C008032079208930A9102230D930E924FF45A
:10017C00E0130F9306A800F0ABFA80B90F2301939C
:10018C0002210291002303934FF4806204920593A1
:10019C0001A800F0DBFC20B911B05DF804FBFFF7FF
:1001AC00CFFFFFF7CDFF000010B500F043FAFFF7CB
:1001BC00C9FF00F029F800F07BF800244FF400513F
:1001CC000C4800F0B5FE21460B4800F06BFF0121F6
:1001DC000A4800F067FF4FF4FA7000F04FFA013450
:1001EC00E4B24FF47A7301220549064800F08FF906
:1001FC00E4E700BF00100140F41F00080C200008C9
:10020C00242000089800002010B588B00022049229
:10021C00059206920792174B996941F0100199616A
:10022C00996901F0100101910199996941F020013E
:10023C009961996901F0200102910299996941F043
:10024C00040199619B6903F004030393039B0A4C1B
:10025C004FF40051204600F065FE4FF40053049318
:10026C00012305930693079304A9204600F04AFD49
:10027C0008B010BD0010024000100140C2B2044B87
:10028C005A60034B1B6813F0400FFAD0704700BF45
:10029C000038014070B50C4616460025B54205DA0B
:1002AC0014F8010BFFF7EAFF0135F7E7304670BD94
:1002BC0008B50A480A4B03604FF4E133436000234E
:1002CC008360C36003610C2242618361C36100F0EF
:1002DC00EFF800B908BDFFF733FFFBE798000020EB
:1002EC000038014010B586B00023029303930493A9
:1002FC0005930268174B9A4201D006B010BD03F566
:10030C0058439A6942F480429A619A6902F4804295
:10031C000092009A9A6942F004029A619B6903F078
:10032C0004030193019B4FF4007302930223039384
:10033C0003230593084C02A9204600F0E3FC4FF47C
:10034C008063029300230393049302A9204600F0D8
:10035C00D9FCD2E70038014000080140FEE7FEE777
:10036C00FEE7FEE7FEE770477047704708B500F000
:10037C0073F908BD82B00E4B9A6942F001029A6182
:10038C009A6902F001020092009ADA6942F08052F6
:10039C00DA61DB6903F080530193019B054A5368D2
:1003AC0023F0E06343F00073536002B0704700BF6A
:1003BC00001002400000014010B5044602681369A9
:1003CC0023F44053C1680B431361836802691343E0
:1003DC0042691A430168CB6823F4B05323F00C0331
:1003EC001343CB600268536923F4407381690B4358
:1003FC0053610268124B9A421FD000F063FC00EB71
:10040C00800303EB830362689200B3FBF2F20D48A6
:10041C00A0FB02314909642303FB11231B01323376
:10042C00A0FB03235B0903F0F00202EB011203F0C3
:10043C000F03216813448B6010BD00F053FCDEE702
:10044C00003801401F85EB512DE9F84305460F4656
:10045C0016469946DDF820802C68246837EA040398
:10046C000CBF01240024B4421FD1B8F1FF3FF3D0DC
:10047C00B8F1000F05D000F0FBF8A0EB09004045E7
:10048C00EAD92A68D36823F4D073D3602A685369F5
:10049C0023F001035361202385F83D3085F83E306D
:1004AC00002385F83C30032000E00020BDE8F883F1
:1004BC0058B310B5044690F83D300BB3242384F8A0
:1004CC003D302268D36823F40053D3602046FFF7F5
:1004DC0073FF2268136923F49043136122685369F4
:1004EC0023F02A0353612268D36843F40053D3608A
:1004FC0000202064202384F83D3084F83E3010BD69
:10050C0080F83C30FFF7EEFED8E7012070472DE96C
:10051C00F04182B01E4690F83D30DBB2202B54D116
:10052C0004460D469046002953D0002A53D090F82B
:10053C003C30012B51D0012380F83C300023036464
:10054C00212380F83D3000F093F80746A4F824806E
:10055C00A4F82680A368B3F5805F05D04FF000089F
:10056C00002384F83C3012E0236913B14FF00008EB
:10057C00F6E7A8460025F3E738F8023B2268C3F3F8
:10058C0008035360E28C92B2013A92B2E284E38C9B
:10059C009BB273B100963B46002280212046FFF7A8
:1005AC0053FFE0B9002DE7D015F8012B23685A60F2
:1005BC00E8E700963B46002240212046FFF744FF27
:1005CC0078B9202384F83D3000E0022002B0BDE869
:1005DC00F0810120FAE70120F8E70220F6E703207A
:1005EC00F4E70320F2E7000010B504460E4B187830
:1005FC004FF47A73B3FBF0F30C4A1068B0FBF3F0D2
:10060C0000F0E6FC68B90F2C01D901200AE00022A9
:10061C0021464FF0FF3000F0A7FC054B1C6000207A
:10062C0000E0012010BD00BF0000002008000020E9
:10063C000400002008B5074A136843F01003136048
:10064C00032000F07FFC0F20FFF7CEFFFFF792FE98
:10065C00002008BD00200240034A1168034B1B78A0
:10066C000B441360704700BFDC000020000000202A
:10067C00014B1868704700BFDC00002038B50446F9
:10068C00FFF7F6FF0546B4F1FF3F02D0044B1B7891
:10069C001C44FFF7EDFF401BA042FAD338BD00BF4E
:1006AC000000002082B0084B1B68084AA2FB032301
:1006BC005B0A00FB03F3019300BF019B5A1E0192DE
:1006CC00002BF9D102B0704708000020D34D621006
:1006DC00002800F0F18170B582B00446036813F075
:1006EC00010F2CD0AA4B5B6803F00C03042B1DD01C
:1006FC00A74B5B6803F00C03082B12D06368B3F5AF
:10070C00803F41D0002B55D103F1804303F50433D6
:10071C001A6822F480321A601A6822F480221A6055
:10072C0037E09B4B5B6813F4803FE7D0984B1B681A
:10073C0013F4003F03D06368002B00F0BF812368E3
:10074C0013F0020F75D0924B5B6813F00C0F5FD057
:10075C008F4B5B6803F00C03082B54D02369002BE0
:10076C0000F089808B4B01221A60FFF781FF054650
:10077C00874B1B6813F0020F74D1FFF779FF401BF6
:10078C000228F5D903209EE1814A136843F4803393
:10079C001360636843B3FFF76BFF05467C4B1B6824
:1007AC0013F4003FCBD1FFF763FF401B6428F5D94E
:1007BC00032088E1B3F5A02F09D0754B1A6822F4F9
:1007CC0080321A601A6822F480221A60E1E703F181
:1007DC008043A3F53C331A6842F480221A601A68ED
:1007EC0042F480321A60D4E7FFF742FF0546684BAB
:1007FC001B6813F4003FA2D0FFF73AFF401B64289C
:10080C00F5D903205FE1624B5B6813F4803FA5D1FF
:10081C005F4B1B6813F0020F03D02369012B40F0D0
:10082C004F815B4A136823F0F803616943EAC10303
:10083C001360236813F0080F32D0A369002B45D046
:10084C00554B01221A60FFF713FF0546504B5B6AAC
:10085C0013F0020F21D1FFF70BFF401B0228F5D933
:10086C00032030E14A4A136823F0F803616943EA34
:10087C00C1031360DDE7474B00221A60FFF7F8FE57
:10088C000546434B1B6813F0020FD2D0FFF7F0FE66
:10089C00401B0228F5D9032015E10120FFF702FFC8
:1008AC00236813F0040F00F09780394BDB6913F0C9
:1008BC00805F1DD1364BDA6942F08052DA61DB6918
:1008CC0003F080530193019B012512E0324B00226F
:1008DC001A60FFF7CDFE05462D4B5B6A13F0020F35
:1008EC00DED0FFF7C5FE401B0228F5D90320EAE055
:1008FC0000252A4B1B6813F4807F11D0E368012B71
:10090C0022D0002B38D103F1804303F504331A6A4B
:10091C0022F001021A621A6A22F004021A6218E02A
:10092C001E4A136843F480731360FFF7A1FE06465A
:10093C001A4B1B6813F4807FE0D1FFF799FE801BE4
:10094C006428F5D90320BEE0114A136A43F0010371
:10095C001362E36873B3FFF78BFE06460C4B1B6AFE
:10096C0013F0020F37D1FFF783FE801B41F288335F
:10097C009842F3D90320A6E0052B11D0044B1A6A38
:10098C0022F001021A621A6A22F004021A62E0E7EB
:10099C0000100240000042428004424200700040BD
:1009AC004D4B1A6A42F004021A621A6A42F00102B2
:1009BC001A62CEE7FFF75CFE0646474B1B6A13F044
:1009CC00020F08D0FFF754FE801B41F28833984287
:1009DC00F3D9032077E0E5B9E369002B72D03E4AE6
:1009EC00526802F00C02082A56D0022B17D03B4B4F
:1009FC0000221A60FFF73CFE0446374B1B6813F0CD
:100A0C00007F47D0FFF734FE001B0228F5D90320E6
:100A1C0059E0314AD36923F08053D361DCE72F4B83
:100A2C0000221A60FFF724FE05462B4B1B6813F0BF
:100A3C00007F06D0FFF71CFE401B0228F5D90320CF
:100A4C0041E0236AB3F5803F1AD023494B6823F465
:100A5C007413226A606A024313434B601F4B0122DA
:100A6C001A60FFF705FE04461B4B1B6813F0007F52
:100A7C000ED1FFF7FDFD001B0228F5D9032022E063
:100A8C00154A536823F40033A1680B435360DCE729
:100A9C00002018E0002016E0012B16D00E4B5B68EE
:100AAC0003F48031226A914211D103F47013626A0B
:100ABC0093420ED1002006E001207047012002E095
:100ACC00012000E0002002B070BD0120FBE70120F6
:100ADC00F9E70120F7E700BF001002406000424236
:100AEC0086B0164B0FCB0DF1180C0CE90F0040F231
:100AFC000123ADF80430124B5B6803F00C02082A9A
:100B0C0002D0104806B07047C3F38342624412F817
:100B1C00102C13F4803F0CD0094B5B68C3F340439B
:100B2C00634413F8143C074800FB02F0B0FBF3F0ED
:100B3C00E8E7054800FB02F0E4E700BF34200008BA
:100B4C000010024000127A0000093D00002800F05D
:100B5C00A08070B50D460446524B1B6803F007038A
:100B6C008B420BD24F4A136823F007030B431360DD
:100B7C00136803F007038B4240F08D80236813F059
:100B8C00020F17D013F0040F04D0474A536843F4F4
:100B9C00E0635360236813F0080F04D0424A536893
:100BAC0043F460535360404A536823F0F003A16848
:100BBC000B435360236813F0010F31D06368012B92
:100BCC0020D0022B25D0384A126812F0020F64D0C4
:100BDC0035494A6822F0030213434B60FFF748FD86
:100BEC000646314B5B6803F00C036268B3EB820F73
:100BFC0016D0FFF73DFD801B41F288339842F0D9A7
:100C0C00032045E0284A126812F4003FE0D101208D
:100C1C003EE0254A126812F0007FD9D1012037E05E
:100C2C00204B1B6803F00703AB420AD91D4A13681B
:100C3C0023F007032B431360136803F00703AB4245
:100C4C002DD1236813F0040F06D0174A536823F4F0
:100C5C00E063E1680B435360236813F0080F07D07F
:100C6C00114A536823F46053216943EAC10353606A
:100C7C00FFF736FF0C4B5B68C3F303130B4AD35CD3
:100C8C00D8400B4B18600B4B1868FFF7ADFC0020DD
:100C9C0070BD012070470120FAE70120F8E7012020
:100CAC00F6E700BF00200240001002404820000878
:100CBC000800002004000020014B1868704700BF9A
:100CCC000800002008B5FFF7F7FF044B5B68C3F37F
:100CDC000223034AD35CD84008BD00BF0010024079
:100CEC005820000808B5FFF7E7FF044B5B68C3F317
:100CFC00C223034AD35CD84008BD00BF0010024099
:100D0C0058200008F0B482B000252C46A3E07F4F99
:100D1C00BB4210D007D97E4FBB420CD007F58037B1
:100D2C00BB4208D013E0A7F58017BB4203D007F5F0
:100D3C007027BB4207D18B68002B58D0012B51D0A8
:100D4C004261082503E0A7F58017BB42F3D0FF2EC4
:100D5C004FD88446FF2E4FD8A200DCF800300F2766
:100D6C00974023EA070305FA02F21343CCF800304C
:100D7C004B6813F0805F6DD0664B9A6942F00102AC
:100D8C009A619B6903F001030193019BA208971CD4
:100D9C00614B53F8273004F00307BF004FF00F0CE2
:100DAC000CFA07FC23EA0C0C5C4B98422AD003F596
:100DBC008063984200F08A8003F58063984200F0CB
:100DCC00878003F5806398421AD004231BE0CD681A
:100DDC00BDE7CD680435BAE7CD680835B7E7CD680F
:100DEC000C35B4E702610825B1E70025AFE704250F
:100DFC00ADE700F1040CADE7A4F108029200ACE7FA
:100E0C00032300E00023BB4043EA0C030232424FB1
:100E1C0047F822304B6813F4803F5BD0404A13688C
:100E2C00334313604B6813F4003F59D03C4A53686A
:100E3C00334353604B6813F4801F57D0384A936880
:100E4C00334393604B6813F4001F55D0344AD36876
:100E5C001E43D66001340B6833FA04F252D00122DF
:100E6C00A24003EA020632EA0303F3D14B68122BC9
:100E7C003FF64DAF122B3FF66AAF01A757F823F0A0
:100E8C00430D0008DB0D0008E50D0008F70D000808
:100E9C005B0D00085B0D00085B0D00085B0D000886
:100EAC005B0D00085B0D00085B0D00085B0D000876
:100EBC005B0D00085B0D00085B0D00085B0D000866
:100ECC005B0D0008DF0D0008EB0D000801239AE70D
:100EDC00022398E7124A136823EA06031360A1E77A
:100EEC000F4A536823EA06035360A3E70C4A93683E
:100EFC0023EA06039360A5E7094AD36823EA0606AA
:100F0C00D660A7E702B0F0BC704700BF000022100B
:100F1C0000003110001002400000014000080140A8
:100F2C00000401400AB10161704709040161704776
:100F3C00C36801EA030221EA030141EA02410161AB
:100F4C0070470000074AD36823F4E0631B041B0CB2
:100F5C00000200F4E060034343F0BF6343F400334A
:100F6C00D360704700ED00E030B4174BDB68C3F37F
:100F7C000223C3F10704042C28BF04241D1D062DD5
:100F8C0018D9033B4FF0FF3505FA04F421EA0401AC
:100F9C00994005FA03F322EA0303194300280BDBFB
:100FAC000901C9B200F1604000F5614080F80013FE
:100FBC0030BC70470023E5E700F00F000901C9B20F
:100FCC00024B1954F4E700BF00ED00E014ED00E013
:100FDC000138B0F1807F0AD2064B5860064AF021E6
:100FEC0082F823100020986007221A6070470120B5
:100FFC00704700BF10E000E000ED00E0704700001B
:10100C000C480D490D4A002302E0D458C450043357
:10101C00C4188C42F9D30A4A0A4C002301E013602D
:10102C000432A242FBD3FFF7E9FF00F00FF8FFF701
:10103C00BBF8704700000020700000200021000861
:10104C0070000020F0000020FEE7000070B50026C4
:10105C000C4D0D4C641BA410A64209D100F0B8FF36
:10106C0000260A4D0A4C641BA410A64205D170BD83
:10107C0055F8043B98470136EEE755F8043B984782
:10108C000136F2E7F8200008F8200008F8200008E4
:10109C00FC20000803460244934200D1704703F839
:1010AC00011BF9E70FB40A4B13B51C6824B1A369F3
:1010BC0013B9204600F066F805AB2046049AA168E7
:1010CC00019300F081F902B0BDE8104004B0704704
:1010DC000C000020002310B50446C0E90033C0E921
:1010EC000433836081814366C2818361194608227F
:1010FC005C30FFF7CFFF054B24626362044BA362A5
:10110C00044BE362044B236310BD00BF811900083C
:10111C00A3190008DB190008FF190008014900F0A9
:10112C00AFB800BFD91C000870B568254A1E5543DE
:10113C000E4605F1740100F0C5F8044640B10021DB
:10114C00C0E900160C30A06005F16802FFF7A2FFA1
:10115C00204670BD014800F0B3B800BFE800002085
:10116C00014800F0AEB800BFE8000020014800F0D4
:10117C00A7B800BFE3000020014800F0A2B800BFF0
:10118C00E300002010B50446FFF7F0FFA3691BB184
:10119C00BDE81040FFF7F0BFC4E912332365134BD1
:1011AC00134A1B68A262A34208BF0123204608BF52
:1011BC00A36100F01FF86060204600F01BF8A060EF
:1011CC00204600F017F800220421E0606068FFF769
:1011DC0081FF01220921A068FFF77CFF0222122166
:1011EC00E068FFF777FF0123A361D1E760200008D7
:1011FC0029110008F8B50746FFF7ACFF1E4B1E6817
:10120C00B36913B93046FFF7BDFF4836D6E9013450
:10121C00013B03D533680BB33668F7E7B4F90C50D0
:10122C00D5B9164B04F15800E360656600F047F839
:10123C00FFF796FF08222946C4E90155C4E9045575
:10124C002560A56104F15C00FFF724FFC4E90D558E
:10125C00C4E912552046F8BD6834D9E70421384654
:10126C00FFF762FF044630600028D5D1FFF778FF06
:10127C000C233B60EEE700BF602000080100FFFF7D
:10128C002DE9F84306468846002700F14804D4E9C6
:10129C000195B9F1010905D52468002CF7D1384620
:1012AC00BDE8F883AB89012B07D9B5F90E300133B2
:1012BC0003D029463046C04707436835E9E77047F5
:1012CC0070477047F8B5CD1C25F0030508350C2D7B
:1012DC0038BF0C25002D064601DBA94203D90C238F
:1012EC0033600020F8BD00F0B1FD21490A681446B6
:1012FC009CB9204F3B6823B92146304600F02AFBAD
:10130C0038602946304600F025FB431C23D10C23C2
:10131C003046336000F0A0FDE3E723685B1B17D475
:10132C000B2B03D923601C44256004E06368A242A4
:10133C000CBF0B605360304600F08EFD04F10B00C7
:10134C00231D20F00700C21ACCD01B1AA350C9E7EA
:10135C0022466468CCE7C41C24F00304A042E3D00A
:10136C00211A304600F0F6FA0130DDD1CFE700BF8C
:10137C008C00002090000020936810B4013B002BDF
:10138C00936007DA9469A34201DB0A2902D110BCED
:10139C0000F034BB1368581C10601970084610BC60
:1013AC007047F8B506460F461446D518AC4201D125
:1013BC00002007E03A46304614F8011BFFF7DCFF2B
:1013CC00431CF3D1F8BD00002DE9F04F0D46144637
:1013DC00984606469DB018B183690BB9FFF7D2FE4B
:1013EC00894B9D421BD175686B6ED90705D4AB89AF
:1013FC009A0502D4A86DFFF763FFAB891B0701D5D3
:10140C002B69EBB92946304600F05CFBC0B16B6E22
:10141C00DC070ED54FF0FF301DB0BDE8F08F7B4BD5
:10142C009D4201D1B568DFE7794B9D4208BFF56855
:10143C00DAE7AB899805EDD4A86DFFF742FFE9E731
:10144C000023099320238DF8293030234FF0010914
:10145C00CDF80C80DFF8BC818DF82A3023469A46F3
:10146C0013F8012B0AB1252AF9D1BAEB040B0BD0D6
:10147C005B46224629463046FFF793FF013000F0C9
:10148C00AA80099A5A4409929AF80030002B00F06D
:10149C00A28000234FF0FF32CDE905230AF1010AA7
:1014AC00049307938DF853301A935446052214F87D
:1014BC00011B584800F0BCFC049AD8B9D10644BFB3
:1014CC0020238DF85330130744BF2B238DF8533052
:1014DC009AF800302A2B15D0544600204FF00A0CF5
:1014EC00079A214611F8013B303B092B4ED9B0B17C
:1014FC00079214E0A0EB080309FA03F31343A24686
:10150C000493D2E7039B191D1B680391002BBBBFEF
:10151C005B4242F0020207930793B8BF0492237810
:10152C002E2B0CD163782A2B35D1039B02341A1D38
:10153C001B680392002BB8BF4FF0FF330593DFF805
:10154C00E4A003225046217800F072FC40B1402305
:10155C00A0EB0A0003FA00F0049B0134034304934C
:10156C0014F8011B06222C488DF8281000F060FCA2
:10157C0000283FD0294B1BBB039B073323F00703E9
:10158C0008330393099B3B44099367E70C460120FE
:10159C000CFB0232A5E700234FF00A0C194601346C
:1015AC000593204610F8012B303A092A03D9002B59
:1015BC00C5D00591C3E7044601230CFB0121F0E7DC
:1015CC0003AB00932A463046154B04A9AFF30080B9
:1015DC000746781CD6D16B6ED90705D4AB899A0512
:1015EC0002D4A86DFFF76DFEAB895B063FF512AF19
:1015FC00099811E703AB00932A463046084B04A91F
:10160C0000F082F8E4E700BF84200008A420000862
:10161C0064200008C4200008CE2000080000000050
:10162C00AF130008CA2000082DE9F047164699466A
:10163C008A680B6907469342B8BF1346336091F82A
:10164C0043200C46DDF820800AB101333360236857
:10165C00990642BF336802333360256815F00605DE
:10166C0006D104F1190AE36832689B1AAB4228DCF4
:10167C0094F84320131E226818BF012392062DD420
:10168C004946384604F14302C047013020D0236854
:10169C00E56803F00603042B18BF002532684FF0F1
:1016AC000006A36808BFAD1A226908BF25EAE575D4
:1016BC009342C4BF9B1AED181A34B5421AD10020BC
:1016CC0008E00123524649463846C047013003D151
:1016DC004FF0FF30BDE8F0870135C4E73020E1184A
:1016EC0081F843005A1C94F845102244023382F8C6
:1016FC004310C5E70123224649463846C04701300E
:10170C00E6D00136D9E700002DE9FF470C46277ECD
:10171C009146782F80469A460C9904F1430207D8DB
:10172C00622F0AD8002F00F0D980582F00F0A48027
:10173C0004F1420684F842703AE0A7F16303152BDA
:10174C00F6D801A050F823F0AD170008C117000817
:10175C003D1700083D1700083D1700083D1700080D
:10176C00C11700083D1700083D1700083D17000879
:10177C003D170008CF180008F1170008B118000831
:10178C003D1700083D170008F11800083D17000828
:10179C00F11700083D1700083D170008B91800089C
:1017AC000B6804F142061A1D1B680A6084F842306B
:1017BC000123A4E0256808682E0600F104030AD56D
:1017CC0005680B60002D03DA2D236D4284F843303D
:1017DC000A235E4819E015F0400F05680B6018BF2E
:1017EC002DB2EFE70B682568181D0860280601D597
:1017FC001D6802E06906FBD51D886F2F0CBF0823FE
:10180C000A235248002184F843106668002EA8BFB2
:10181C002168A660A4BF21F0040121600DB9002E3F
:10182C004DD01646B5FBF3F103FB1157C75D06F817
:10183C00017D2F46BB420D46F4D9082B0BD12368F2
:10184C00DF0708D5236961689942DEBF302306F8AB
:10185C00013C06F1FF36921B22614B462146404665
:10186C00CDF800A003AAFFF7DFFE01304CD14FF0FA
:10187C00FF3004B0BDE8F087344884F845700E683A
:10188C00236856F8045B1F060E6014D5D90744BFB5
:10189C0043F0200323601DB9236823F02003236049
:1018AC001023AFE7236843F02003236078232848F4
:1018BC0084F84530E3E75E0648BFADB2E6E716466E
:1018CC00BBE70B6826681D1D60690D6035061B683B
:1018DC0001D5186002E07106FBD51880002316466E
:1018EC002361BAE70B681A1D0A601E680021304696
:1018FC00626800F09DFA08B1801B60606368236128
:10190C00002384F84330A8E7324649464046236911
:10191C00D0470130ABD023689B0713D4E068039BFE
:10192C009842B8BF1846A4E70123324649464046C0
:10193C00D04701309BD00135E36803995B1AAB4269
:10194C00F2DCEBE7002504F11906F5E7D5200008D9
:10195C00E620000838B50023054D044608462B60E8
:10196C0000F028FB431C02D12B6803B1236038BD67
:10197C00EC00002010B50C46B1F90E1000F0BEFAC8
:10198C000028ABBF636DA3891B1823F48053ACBF35
:10199C006365A38110BD2DE9F0411F468B89054677
:1019AC00DB050C46164605D502230022B1F90E10B4
:1019BC0000F0C8F9A389324623F48053A38128464A
:1019CC003B46B4F90E10BDE8F04100F069B810B513
:1019DC000C46B1F90E1000F0B5F9431CA38915BFE4
:1019EC00606523F4805343F48053A38118BFA38113
:1019FC0010BDB1F90E1000F0D3B80000F8B50E46CA
:101A0C001446054618B183690BB9FFF7BBFB214B94
:101A1C009C422BD16C68A369A360A3891A072FD5AC
:101A2C0023696BB323692068F6B2C01A6369374621
:101A3C00834204DC2146284600F048F930BBA368F9
:101A4C000130013BA36023685A1C22601E7063693D
:101A5C00834204D0A389DB0706D50A2E04D1214684
:101A6C00284600F033F988B93846F8BD0A4B9C4239
:101A7C0001D1AC68CFE7094B9C4208BFEC68CAE7C0
:101A8C002146284600F01EF80028CBD04FF0FF3737
:101A9C00EAE700BF84200008A420000864200008A6
:101AAC0038B50446084611460022054D2A601A46F0
:101ABC00FEF7F0FB431C02D12B6803B1236038BD49
:101ACC00EC000020324B70B51D6806460C4625B163
:101ADC00AB6913B92846FFF755FB2E4B9C420FD12F
:101AEC006C68A389B4F90C2019072CD4DD0611D429
:101AFC000923336042F040034FF0FF30A3813EE0F6
:101B0C00254B9C4201D1AC68EBE7244B9C4208BFAF
:101B1C00EC68E6E7580712D5616B41B104F1440358
:101B2C00994202D0304600F09DF900236363A389EB
:101B3C0023F02403A3810023636023692360A3891A
:101B4C0043F00803A38123694BB9A38903F42073E1
:101B5C00B3F5007F03D02146304600F029F9A08967
:101B6C00B4F90C2010F001030AD00023A3606369C0
:101B7C005B42A361236943B910F08000BAD170BDF8
:101B8C00810758BF6369A360F4E70020F7E700BF43
:101B9C000C00002084200008A42000086420000809
:101BAC0038B50023054D044608462B6000F0DAF9E1
:101BBC00431C02D12B6803B1236038BDEC0000201C
:101BCC008A892DE9F041054610070C4658D44B681C
:101BDC00002B05DC0B6C002B02DC0020BDE8F08137
:101BEC00E66A002EF9D0002312F480522F682B6085
:101BFC0032D0606DA3895A0705D56368C01A636B30
:101C0C000BB1236CC01A00230246E66A2846216AEF
:101C1C00B047431CA38906D129681D292CD82A4A10
:101C2C00CA40D60728D5002262602269D9042260F6
:101C3C0004D5421C01D12B6803B96065616B2F6020
:101C4C000029CAD004F14403994202D0284600F07E
:101C5C0009F900206063C1E7216A01232846B047D7
:101C6C00411CC7D12B68002BC4D01D2B01D0162BC7
:101C7C0001D12F60B1E7A38943F04003A381ADE705
:101C8C000F69002FA9D0930718BF00230E6808BF57
:101C9C004B69A6EB07080F608B60B8F1000F9CDD59
:101CAC0043463A462846216AA66AB047002806DC15
:101CBC00A3894FF0FF3043F04003A3818EE7074424
:101CCC00A8EB0008E9E700BF0100402038B50B691C
:101CDC0005460C4613B90025284638BD18B1836952
:101CEC000BB9FFF74FFA144B9C421BD16C68B4F93B
:101CFC000C30002BEFD0626ED00704D4990502D4BF
:101D0C00A06DFFF7DDFA28462146FFF759FF636EF9
:101D1C000546DA07E0D4A3899B05DDD4A06DFFF757
:101D2C00D0FAD9E7054B9C4201D1AC68DFE7044BF4
:101D3C009C4208BFEC68DAE784200008A420000865
:101D4C006420000838B50446084611460022054DAB
:101D5C002A601A4600F01EF9431C02D12B6803B10D
:101D6C00236038BDEC00002070B50E46B1F90E10A2
:101D7C00144600291D4696B007DA00232B60B38960
:101D8C001A0610D44FF480630EE06A4600F0C8F8CF
:101D9C000028F2DB019A02F47042A2F500535A4279
:101DAC005A412A60EEE740230020236016B070BD34
:101DBC008B8973B59D0706460C4607D504F147037E
:101DCC00236023610123636102B070BD6A4601ABDD
:101DDC00FFF7CAFF009905463046FFF773FA48B97A
:101DEC00B4F90C309A05EFD423F0030343F002034B
:101DFC00A381E3E70D4BB362A389206043F080031A
:101E0C00A381009B20616361019B5BB13046B4F9F7
:101E1C000E1000F097F828B1A38923F0030343F0C8
:101E2C000103A381A0890543A581CDE729110008F1
:101E3C00034610B5C9B202449342184601D10020A2
:101E4C0003E0047801338C42F6D110BD0148FFF752
:101E5C0037BA00BFE40000200148FFF732BA00BFD8
:101E6C00E400002038B50546002943D051F8043C65
:101E7C000C1F002BB8BFE418FFF7E8FF1E4A1368CD
:101E8C00104633B9636014602846BDE83840FFF74C
:101E9C00E3BFA3420AD921686218934201BF1A68B2
:101EAC005B685218226063600460EDE71A465B6859
:101EBC000BB1A342FAD911685018A0420BD120687B
:101ECC000144501883421160DED118685B680144EC
:101EDC0011605360D8E702D90C232B60D4E720683B
:101EEC0021188B4201BF19685B6809182160636077
:101EFC005460C9E738BD00BF8C00002038B50446DB
:101F0C00084611460022054D2A601A4600F04AF890
:101F1C00431C02D12B6803B1236038BDEC000020B8
:101F2C0038B50023064D0446084611462B6000F0D8
:101F3C0021F8431C02D12B6803B1236038BD00BFCC
:101F4C00EC00002038B50023054D044608462B60F4
:101F5C0000F018F8431C02D12B6803B1236038BD84
:101F6C00EC0000205822024B4FF0FF301A607047F3
:101F7C00EC0000205822024B4FF0FF301A607047E3
:101F8C00EC0000205822024B00201A60704700BF62
:101F9C00EC0000205822024B4FF0FF301A607047C3
:101FAC00EC0000205822024B4FF0FF301A607047B3
:101FBC00EC000020044A05491368002B08BF0B46AF
:101FCC00184410601846704794000020F000002060
:101FDC00F8B500BFF8BC08BC9E467047F8B500BF0A
:081FEC00F8BC08BC9E467047DA
:101FF40054686973206973206120746573742E2595
:1020040064200D0A000000007478427566666572EB
:102014002073697A652069732025640A0000000032
:102024005468697320697320612074657374210096
:1020340002030405060708090A0B0C0D0E0F101005
:102044000000000000000000000000000102030482
:102054000607080900000000010203041000002024
:10206400000000000000000000000000000000006C
:10207400000000000000000000000000000000005C
:10208400000000000000000000000000000000004C
:10209400000000000000000000000000000000003C
:1020A400000000000000000000000000000000002C
:1020B400000000000000000000000000000000001C
:1020C400232D302B2000686C4C006566674546471D
:1020D40000303132333435363738394142434445A0
:1020E400460030313233343536373839616263640F
:0420F400656600001D
:0420F80031010008AA
:0420FC000D010008CA
:1021000001000000100000000024F4001000002076
:102110000000000084200008A420000864200008BB
:1021200000000000000000000000000000000000AF
:10213000000000000000000000000000000000009F
:10214000000000000000000000000000000000008F
:10215000000000000000000000000000000000007F
:10216000000000000000000000000000000000006F
:040000050800100DD2
:00000001FF
